:020000040800F2
:1000000000000220959D0008D9800008E7800008C4
:10001000ED800008F3800008F9800008000000006F
:10002000000000000000000000000000FF80000849
:100030000D810008000000001B81000829810008D4
:10004000E59D0008E59D0008E59D0008E59D000888
:10005000E59D0008E59D0008E59D0008E59D000878
:10006000E59D0008E59D0008E59D0008E59D000868
:10007000E59D0008E59D0008E59D0008E59D000858
:10008000E59D0008E59D0008E59D0008E59D000848
:10009000E59D0008E59D0008E59D0008E59D000838
:1000A000E59D0008E59D0008E59D0008E59D000828
:1000B000E59D0008E59D0008E59D0008E59D000818
:1000C000E59D0008E59D0008E59D0008E59D000808
:1000D000E59D0008E59D0008E59D0008E59D0008F8
:1000E000E59D0008E59D0008E59D0008E59D0008E8
:1000F000E59D0008E59D0008E59D0008E59D0008D8
:10010000E59D0008E59D0008E59D0008E59D0008C7
:10011000E59D0008E59D0008E59D0008E59D0008B7
:10012000E59D0008E59D0008E59D0008E59D0008A7
:10013000E59D00080000000000000000E59D0008AB
:10014000E59D0008E59D0008E59D00083581000853
:10015000E59D0008E59D0008E59D0008E59D000877
:10016000E59D0008E59D0008E59D0008E59D000867
:10017000E59D0008E59D0008E59D000800000000E1
:1001800000000000E59D00080000000000000000E5
:10019000E59D00080000000000000000E59D00084B
:1001A000000000000000000000000000E59D0008C5
:1001B000E59D0008E59D0008E59D0008E59D000817
:0401C000E59D0008B1
:1001D00053B94AB9002908BF00281CBF4FF0FF31AE
:1001E0004FF0FF3000F0E2B8ADF1080C6DE904CE3D
:1001F00009F016FEDDF804E0DDE9022304B07047E3
:1002000000F1340191E838009C46A6464CF8045DA4
:1002100090E8FF0FE54600BD90EC210B704700BF52
:1002200080EC210B704700BF90EC200B704700BFA3
:1002300080EC200B704700BFD0EC200B704700BF54
:10024000C0EC200B704700BFF0EC0201F0EC021193
:10025000F0EC0221F0EC0231F0EC0241F0EC025142
:10026000F0EC0261F0EC0271F0EC0281F0EC029132
:10027000F0EC02A1F0EC02B1F0EC02C1F0EC02D122
:10028000F0EC02E1F0EC02F1704700BFE0EC02019B
:10029000E0EC0211E0EC0221E0EC0231E0EC024182
:1002A000E0EC0251E0EC0261E0EC0271E0EC028172
:1002B000E0EC0291E0EC02A1E0EC02B1E0EC02C162
:1002C000E0EC02D1E0EC02E1E0EC02F1704700BFAB
:1002D000B0FC0181B0FC0191B0FC01A1B0FC01B106
:1002E000704700BFA0FC0181A0FC0191A0FC01A10E
:1002F000A0FC01B1704700BFEC4600B52DE90050ED
:100300002DE9FF1F4FF000032DE90C0001A90AF0B1
:1003100014F8DDF840E012B0704700BFEC4600B5BD
:100320002DE900502DE9FF1F4FF000032DE90C00CF
:1003300001A90AF039F8DDF840E012B0704700BFBB
:10034000EC4600B52DE900502DE9FF1F4FF00003EA
:100350002DE90C0001A90AF047F8DDF840E012B0E1
:10036000704700BFEC4600B52DE900502DE9FF1F96
:100370004FF000032DE90C0001AB0AF00BF8DDF89B
:1003800040E012B0704700BFEC4600B52DE90050C8
:100390002DE9FF1F4FF000032DE90C0001AA0AF020
:1003A00074F8DDF840E012B0704700BF704700BF3E
:1003B00001F0FF01102A2BDB10F0070F08D010F816
:1003C000013B013A8B422DD010F0070F42B3F6D11A
:1003D000F0B441EA012141EA014122F007047FF033
:1003E00000070023F0E80256083C85EA010586EA8A
:1003F000010685FA47F5A3FA87F586FA47F6A5FAC6
:1004000087F68EB9EED1F0BC01F0FF0102F00702D1
:1004100032B110F8013B013A83EA010313B1F8D17C
:100420000020704701387047002D06BF354603385D
:10043000073815F0010F07D1013015F4807F02BF96
:10044000013015F4C03F0130F0BC0138704700BFE7
:1004500010B5054C227832B9044B13B10448AFF300
:1004600000800123237010BDF00100200000000077
:10047000CCBB000808B5034B1BB103490348AFF3DD
:10048000008008BD00000000F4010020CCBB000883
:1004900080B500AF0E4B1B680D4A43F40073136028
:1004A0000B4B1B680A4A43F480631360084B1B68BC
:1004B000074A43F480731360032000F0C1FB00205F
:1004C00000F008F807F0E0FD0023184680BD00BFEB
:1004D000003C024080B582B000AF7860124B1A68D1
:1004E000124B1B7819464FF47A73B3FBF1F3B2FB4E
:1004F000F3F3184600F0D9FB0346002B01D001238B
:100500000EE07B680F2B0AD8002279684FF0FF308D
:1005100000F0A1FB064A7B681360002300E0012382
:1005200018460837BD4680BD180100200400002091
:100530000000002080B400AF064B1B781A46064B23
:100540001B681344044A136000BFBD465DF8047B7A
:10055000704700BF040000200C02002080B400AFF0
:10056000034B1B681846BD465DF8047B704700BF0F
:100570000C02002080B584B000AF7860FFF7EEFF7A
:10058000B8607B68FB60FB68B3F1FF3F05D00A4BA6
:100590001B781A46FB681344FB6000BFFFF7DEFFC1
:1005A0000246BB68D31AFA689A42F7D800BF00BF68
:1005B0001037BD4680BD00BF0400002080B584B068
:1005C00000AF78600023FB737B68002B01D101230F
:1005D00033E07B681B6C002B09D1786806F010FFB4
:1005E0007B6800225A647B68002283F83C207B6889
:1005F0001B6C03F01003002B18D17B681B6C23F4D9
:10060000885323F0020343F002027B681A6478687F
:1006100000F04AF97B6800225A647B681B6C23F067
:10062000030343F001027B681A6401E00123FB73BA
:100630007B68002283F83C20FB7B18461037BD46C0
:1006400080BD000080B485B000AF786039600023C1
:10065000BB607B6893F83C30012B01D1022313E18E
:100660007B68012283F83C203B681B68092B25D955
:100670007B681B68D9683B681B689BB21A461346A7
:100680005B0013441E3B072202FA03F3DA437B6844
:100690001B680A40DA607B681B68D9683B689A6807
:1006A0003B681B689BB2184603465B0003441E3B35
:1006B0009A407B681B680A43DA6022E07B681B680B
:1006C00019693B681B689BB21A4613465B001344CA
:1006D000072202FA03F3DA437B681B680A401A61B7
:1006E0007B681B6819693B689A683B681B689BB20A
:1006F000184603465B0003449A407B681B680A4324
:100700001A613B685B68062B24D87B681B68596BB1
:100710003B685A6813469B001344053B1F2202FAAC
:1007200003F3DA437B681B680A405A637B681B68E3
:10073000596B3B681B689BB218463B685A68134666
:100740009B001344053B00FA03F27B681B680A43D5
:100750005A634CE03B685B680C2B24D87B681B68B1
:10076000196B3B685A6813469B001344233B1F22B6
:1007700002FA03F3DA437B681B680A401A637B685A
:100780001B68196B3B681B689BB218463B685A682C
:1007900013469B001344233B00FA03F27B681B685B
:1007A0000A431A6323E07B681B68D96A3B685A686E
:1007B00013469B001344413B1F2202FA03F3DA4322
:1007C0007B681B680A40DA627B681B68D96A3B68F1
:1007D0001B689BB218463B685A6813469B0013443B
:1007E000413B00FA03F27B681B680A43DA62294B3B
:1007F000FB607B681B68284A93420FD13B681B68EB
:10080000122B0BD1FB685B6823F40002FB685A6073
:10081000FB685B6843F48002FB685A607B681B6876
:100820001D4A93422BD13B681B681C4A934203D05C
:100830003B681B68112B22D1FB685B6823F48002A4
:10084000FB685A60FB685B6843F40002FB685A600F
:100850003B681B68114A934211D1114B1B68114A26
:10086000A2FB03239A0C13469B0013445B00BB605E
:1008700002E0BB68013BBB60BB68002BF9D17B6821
:10088000002283F83C20002318461437BD465DF84B
:10089000047B70470023014000200140120000103B
:1008A0001801002083DE1B4380B485B000AF786060
:1008B000794BFB60FB685B6823F44032FB685A604D
:1008C000FB685A687B685B681A43FB685A607B6800
:1008D0001B685A687B681B6822F480725A607B68C8
:1008E0001B6859687B681B691A027B681B680A438E
:1008F0005A607B681B685A687B681B6822F04072EC
:100900005A607B681B6859687B689A687B681B68BB
:100910000A435A607B681B689A687B681B6822F4EC
:1009200000629A607B681B6899687B68DA687B68FC
:100930001B680A439A607B689B6A584A934222D09C
:100940007B681B689A687B681B6822F070629A60FB
:100950007B681B6899687B689A6A7B681B680A4396
:100960009A607B681B689A687B681B6822F040521B
:100970009A607B681B6899687B68DA6A7B681B6889
:100980000A439A600FE07B681B689A687B681B6863
:1009900022F070629A607B681B689A687B681B68AB
:1009A00022F040529A607B681B689A687B681B68DB
:1009B00022F002029A607B681B6899687B681B7E44
:1009C0005A007B681B680A439A607B6893F8203062
:1009D000002B1BD07B681B685A687B681B6842F43D
:1009E00000625A607B681B685A687B681B6822F447
:1009F00060425A607B681B6859687B685B6A013B90
:100A00005A037B681B680A435A6007E07B681B68CF
:100A10005A687B681B6822F400625A607B681B6816
:100A2000DA6A7B681B6822F47002DA627B681B68F2
:100A3000D96A7B68DB69013B1A057B681B680A433E
:100A4000DA627B681B689A687B681B6822F4007214
:100A50009A607B681B6899687B6893F830305A020B
:100A60007B681B680A439A607B681B689A687B688E
:100A70001B6822F480629A607B681B6899687B68B7
:100A80005B699A027B681B680A439A6000BF14374F
:100A9000BD465DF8047B7047002301400100000F54
:100AA00080B485B000AF78607B6803F00703FB601B
:100AB0000C4BDB68BB60BA684FF6FF031340BB60AA
:100AC000FB681A02BB68134343F0BF6343F400336F
:100AD000BB60044ABB68D36000BF1437BD465DF8F5
:100AE000047B704700ED00E080B400AF044BDB688E
:100AF0001B0A03F007031846BD465DF8047B7047E8
:100B000000ED00E080B483B000AF0346FB7197F9BD
:100B10000730002B0BDBFB7903F01F02074997F925
:100B200007305B09012000FA02F241F8232000BFE0
:100B30000C37BD465DF8047B704700BF00E100E064
:100B400080B483B000AF03463960FB7197F907307A
:100B5000002B0ADB3B68DAB20C4997F90730120127
:100B6000D2B20B4483F800230AE03B68DAB20849AA
:100B7000FB7903F00F03043B1201D2B20B441A7647
:100B800000BF0C37BD465DF8047B704700E100E014
:100B900000ED00E080B489B000AFF860B9607A6021
:100BA000FB6803F00703FB61FB69C3F10703042B38
:100BB00028BF0423BB61FB690433062B02D9FB6900
:100BC000033B00E000237B614FF0FF32BB6902FA78
:100BD00003F3DA43BB681A407B699A404FF0FF3158
:100BE0007B6901FA03F3D9437B680B401343184632
:100BF0002437BD465DF8047B7047000080B582B0A5
:100C000000AF78607B68013BB3F1807F01D30123A3
:100C10000FE00A4A7B68013B53600F214FF0FF3021
:100C2000FFF78EFF054B00229A60044B07221A60E3
:100C3000002318460837BD4680BD00BF10E000E025
:100C400080B582B000AF78607868FFF729FF00BFF9
:100C50000837BD4680BD80B586B000AF0346B96099
:100C60007A60FB7300237B61FFF73EFF78617A684F
:100C7000B9687869FFF78EFF024697F90F30114681
:100C80001846FFF75DFF00BF1837BD4680BD80B531
:100C900082B000AF0346FB7197F907301846FFF7A3
:100CA00031FF00BF0837BD4680BD80B582B000AFC0
:100CB00078607868FFF7A2FF034618460837BD46FC
:100CC00080BD000080B489B000AF78603960002337
:100CD0007B6100233B610023BB610023FB6165E175
:100CE0000122FB6902FA03F37B613B681B687A69A6
:100CF00013403B613A697B699A4240F054813B68FA
:100D00005B68022B03D03B685B68122B23D1FB6925
:100D1000DA087B68083253F82230BB61FB6903F0C4
:100D200007039B000F2202FA03F3DB43BA69134067
:100D3000BB613B681A69FB6903F007039B0002FA79
:100D400003F3BA691343BB61FB69DA087B680832B5
:100D5000B96943F822107B681B68BB61FB695B00C3
:100D6000032202FA03F3DB43BA691340BB613B6819
:100D70005B6803F00302FB695B0002FA03F3BA69E4
:100D80001343BB617B68BA691A603B685B68012BDF
:100D90000BD03B685B68022B07D03B685B68112B6C
:100DA00003D03B685B68122B30D17B689B68BB61CA
:100DB000FB695B00032202FA03F3DB43BA691340C9
:100DC000BB613B68DA68FB695B0002FA03F3BA694E
:100DD0001343BB617B68BA699A607B685B68BB61DF
:100DE0000122FB6902FA03F3DB43BA691340BB61DA
:100DF0003B685B681B0903F00102FB6902FA03F31D
:100E0000BA691343BB617B68BA695A607B68DB6867
:100E1000BB61FB695B00032202FA03F3DB43BA699F
:100E20001340BB613B689A68FB695B0002FA03F3FD
:100E3000BA691343BB617B68BA69DA603B685B6877
:100E400003F08053002B00F0AE800023FB605D4B6D
:100E50005B6C5C4A43F4804353645A4B5B6C03F411
:100E60008043FB60FB68584AFB699B08023352F8D9
:100E70002330BB61FB6903F003039B000F2202FADE
:100E800003F3DB43BA691340BB617B684F4A93426B
:100E900025D07B684E4A93421FD07B684D4A9342CF
:100EA00019D07B684C4A934213D07B684B4A9342DB
:100EB0000DD07B684A4A934207D07B68494A9342E7
:100EC00001D106230CE007230AE0052308E00423F0
:100ED00006E0032304E0022302E0012300E00023F4
:100EE000FA6902F0030292009340BA691343BB61AE
:100EF0003549FB699B080233BA6941F823203A4B14
:100F00001B68BB613B69DB43BA691340BB613B684B
:100F10005B6803F48033002B03D0BA693B69134349
:100F2000BB61314ABB6913602F4B5B68BB613B6996
:100F3000DB43BA691340BB613B685B6803F4003371
:100F4000002B03D0BA693B691343BB61264ABB69D6
:100F50005360254B9B68BB613B69DB43BA69134017
:100F6000BB613B685B6803F48013002B03D0BA6954
:100F70003B691343BB611C4ABB6993601A4BDB6836
:100F8000BB613B69DB43BA691340BB613B685B688B
:100F900003F40013002B03D0BA693B691343BB6110
:100FA000114ABB69D360FB690133FB61FB690F2BFD
:100FB0007FF696AE00BF00BF2437BD465DF8047BC8
:100FC000704700BF00380240003801400000024076
:100FD0000004024000080240000C024000100240E1
:100FE0000014024000180240003C014080B485B06B
:100FF00000AF78600B467B807B681A697B88134062
:10100000002B02D00123FB7301E00023FB73FB7B69
:1010100018461437BD465DF8047B704780B483B032
:1010200000AF78600B467B8013467B707B78002B8B
:1010300003D07A887B689A6103E07B881A047B6816
:101040009A6100BF0C37BD465DF8047B7047000015
:1010500080B584B000AF78607B68002B01D101239C
:101060001BE17B6893F83D30DBB2002B06D17B6837
:10107000002283F83C20786806F0D2FC7B682422AA
:1010800083F83D207B681B681A687B681B6822F028
:1010900001021A6001F0D4FBF8607B685B68814A4A
:1010A000934207D8FB68804A934294BF01230023F0
:1010B000DBB206E0FB687D4A934294BF0123002324
:1010C000DBB2002B01D00123E7E0FB68784AA2FBEA
:1010D00003239B0CBB607B681B685B6823F03F01AC
:1010E0007B681B68BA680A435A607B681B681B6A86
:1010F00023F03F017B685B686A4A934202D8BB6871
:10110000013309E0BB684FF4967202FB03F3694AAE
:10111000A2FB03239B0901337A6812680B43136215
:101120007B681B68DB6923F44F4222F0FF027B6877
:101130005B685C498B4219D8FB68591E7B685B6809
:101140005B00B1FBF3F3591C40F6FC730B40002B22
:101150000AD0FB68591E7B685B685B00B1FBF3F348
:101160000133C3F30B0351E004234FE07B689B681A
:10117000002B11D1FB68581E7B6859680B465B0039
:101180000B44B0FBF3F30133C3F30B03002B0CBF91
:1011900001230023DBB212E0FB68581E7B6859680C
:1011A0000B469B000B4499000B44B0FBF3F3013357
:1011B000C3F30B03002B0CBF01230023DBB2002B76
:1011C00001D0012322E07B689B68002B0ED1FB68D5
:1011D000581E7B6859680B465B000B44B0FBF3F369
:1011E0000133C3F30B0343F400430FE0FB68581EC5
:1011F0007B6859680B469B000B4499000B44B0FB7D
:10120000F3F30133C3F30B0343F4404379680968F4
:101210001343CB617B681B681B6823F0C0017B68AC
:10122000DA697B681B6A1A437B681B680A431A6089
:101230007B681B689B6823F4034323F0FF037A68F1
:1012400011697A68D26811437A6812680B43936017
:101250007B681B68DB6823F0FF017B685A697B6849
:101260009B691A437B681B680A43DA607B681B68CA
:101270001A687B681B6842F001021A607B680022D2
:101280001A647B68202283F83D207B6800221A6361
:101290007B68002283F83E20002318461037BD46A5
:1012A00080BD00BFA08601007F841E00FF083D00B6
:1012B00083DE1B43D34D6210F0B58FB00AAF786068
:1012C0007B68002B01D1012316E17B681B68BB60A2
:1012D0007B6893F8BD33DBB2002B06D17B6800221C
:1012E00083F8BC23786808F0D7F87B68032283F87A
:1012F000BD23BB68DB6B03F48073002B02D17B68DA
:1013000000221A617B681B68184603F0ACFA7B6800
:101310001B683B607E686D4606F110040FCC0FC55C
:101320000FCC0FC594E8030085E80300331D0ECBF6
:10133000386803F083F90346002B05D07B6802224E
:1013400083F8BD230123D7E07B681B680021184682
:1013500003F09AFA0023FB734AE0FA7B796813469C
:10136000DB009B1A9B000B443D3301221A70FA7B71
:1013700079681346DB009B1A9B000B443C33FA7BD5
:101380001A70FA7BFB7B98B279681346DB009B1AD4
:101390009B000B44423302461A80FA7B796813465D
:1013A000DB009B1A9B000B443F3300221A70FA7B30
:1013B00079681346DB009B1A9B000B4444330022E0
:1013C0001A60FA7B79681346DB009B1A9B000B447A
:1013D000483300221A60FA7B79681346DB009B1AB7
:1013E0009B000B44503300221A60FB7B0133FB73DC
:1013F000FA7B7B685B689A42AFD30023FB7344E0BF
:10140000FA7B79681346DB009B1A9B000B4403F2BE
:10141000FD1300221A70FA7B79681346DB009B1AD1
:101420009B000B4403F5FE73FA7B1A70FA7B796814
:101430001346DB009B1A9B000B4403F2FF130022B0
:101440001A70FA7B79681346DB009B1A9B000B44E9
:1014500003F5017300221A60FA7B79681346DB00FA
:101460009B1A9B000B4403F5027300221A60FA7B5F
:1014700079681346DB009B1A9B000B4403F5047349
:1014800000221A60FB7B0133FB73FA7B7B685B688D
:101490009A42B5D37B681B683B607E686D4606F157
:1014A00010040FCC0FC50FCC0FC594E8030085E8DE
:1014B0000300331D0ECB386803F010FA0346002BEF
:1014C00005D07B68022283F8BD23012314E07B68EA
:1014D000002283F838207B68012283F8BD237B68D3
:1014E0005B6A012B02D1786801F098F87B681B6871
:1014F000184604F0F8F9002318461437BD46F0BD2D
:1015000080B584B000AF78607B681B68FB607B6847
:1015100093F8BC33012B01D1022320E07B68012228
:1015200083F8BC237B689B6A012B09D17B689B698C
:10153000012B05D0FB689B6B43F48032FB689A63F8
:101540007B681B68184604F0B6F97B681B68184670
:1015500003F078F97B68002283F8BC230023184647
:101560001037BD4680BD90B58DB000AF78607B6808
:101570001B683B623B6AFB617B681B68184604F092
:101580005DFA0346002B40F0BB837B681B6818465E
:1015900004F0C1F90346002B00F0B1837B681B689F
:1015A000184604F0B8F9034603F00203022B07D1F2
:1015B0007B681B685A697B681B6802F002025A61EB
:1015C0007B681B68184604F0A6F9034603F4002361
:1015D000B3F5002F7BD100237B627B681B68184624
:1015E00004F0ACF9B8626FE0BB6A03F00103002BB2
:1015F00064D07B681B687A6AD2B21146184604F040
:10160000D1F9B861BB6903F00103002B0CD07B6AF0
:101610005A01FB69134403F530631A4601239360B2
:10162000796A786800F03AFEBB6903F00803002B82
:101630000CD0796A786800F039FF7B6A5A01FB693F
:10164000134403F530631A4608239360BB6903F023
:101650001003002B08D07B6A5A01FB69134403F581
:1016600030631A4610239360BB6903F02003002BFC
:1016700015D07B681B69012B08D17B6818687B68D3
:1016800003F571731A46012104F01CFA7B6A5A01B2
:10169000FB69134403F530631A4620239360BB694A
:1016A00003F40053002B09D07B6A5A01FB691344F1
:1016B00003F530631A464FF4005393607B6A01339D
:1016C0007B62BB6A5B08BB62BB6A002B8CD17B6808
:1016D0001B68184604F01FF9034603F48023B3F592
:1016E000802F40F0C4807B681B68184604F040F9E6
:1016F000B86200237B62B6E0BB6A03F00103002BF3
:1017000000F0AB807B681B687A6AD2B2114618463B
:1017100004F066F9B861BB6903F00103002B5BD0EC
:101720007B6A03F00F03012202FA03F37B61FB697A
:1017300003F500635A6B7B69DB43F96901F50061CE
:1017400013404B637B6A5A01FB69134403F5106332
:101750001A46012393607B681B69012B1BD17968B2
:101760007A6A1346DB009B1A9B000B4448331968C6
:1017700078687A6A1346DB009B1A9B000344443363
:101780001B68194478687A6A1346DB009B1A9B0031
:101790000344483319607B6ADBB21946786807F066
:1017A0000AFF7B681B69012B16D17B6A002B13D1C2
:1017B00079687A6A1346DB009B1A9B000B4450330E
:1017C0001B68002B08D17B6818687B6803F5717370
:1017D0001A46012104F076F9BB6903F00803002BD7
:1017E00008D07B6A5A01FB69134403F510631A465B
:1017F00008239360BB6903F01003002B08D07B6AB9
:101800005A01FB69134403F510631A4610239360D1
:10181000BB6903F04003002B08D07B6A5A01FB69C7
:10182000134403F510631A4640239360BB6903F029
:101830000203002B08D07B6A5A01FB69134403F5AD
:1018400010631A4602239360BB6903F08003002BE8
:1018500003D0796A786800F094FC7B6A01337B627C
:10186000BB6A5B08BB62BB6A002B7FF445AF7B6839
:101870001B68184604F04FF8034603F00043B3F129
:10188000004F22D1FB6903F500635B68FA6902F53A
:10189000006223F0010353607B6893F8F433012B5B
:1018A00008D17B68002283F8F4230021786808F0CF
:1018B000D5F802E0786807F0F5FE7B681B685A6986
:1018C0007B681B6802F000425A617B681B681846FF
:1018D00004F021F8034603F40063B3F5006F12D15E
:1018E000FB6903F500639B6803F00103012B02D140
:1018F000786807F0B1FE7B681B685A697B681B68D3
:1019000002F400625A617B681B68184604F003F811
:10191000034603F00063B3F1006F21D17B681B68BD
:101920005A697B681B6802F000625A617B6893F811
:10193000F433002B11D17B68012283F8F4237B68F8
:101940001B685B6D9B0803F00F027B68C3F8F823EC
:101950000121786808F082F802E0786807F07CFEE0
:101960007B681B68184603F0D6FF034603F48053D8
:10197000B3F5805F40F0A780FB6903F500635B6807
:10198000FA6902F5006223F0010353607B681B686B
:101990001021184603F00EF90023FB6236E0FB6AC3
:1019A0005A01FB69134403F510631A464FF67F335F
:1019B0009360FB6A5A01FB69134403F510631B68CB
:1019C000FA6A5101FA690A4402F5106223F400131D
:1019D0001360FB6A5A01FB69134403F530631A462E
:1019E0004FF67F339360FB6A5A01FB69134403F59A
:1019F00030631B68FA6A5101FA690A4402F53062E1
:101A000023F400131360FB6A0133FB627B685B689D
:101A1000FA6A9A42C3D3FB6903F50063DB69FA698A
:101A200002F5006243F00113D3617B681B6B002B4E
:101A300016D0FB6903F50063D3F88430FA6902F528
:101A4000006243F00B03C2F88430FB6903F50063C6
:101A50005B6CFA6902F5006243F00B03536415E016
:101A6000FB6903F500635B69FA6902F5006243F400
:101A7000005343F02B035361FB6903F500631B69BB
:101A8000FA6902F5006243F00B031361FB6903F589
:101A900000631B68FA6902F5006223F4FE631360B9
:101AA0007B6818687B681B69D9B27B6803F5717322
:101AB0001A4604F007F87B681B685A697B681B6844
:101AC00002F480525A617B681B68184603F023FFBA
:101AD000034603F40053B3F5005F24D17B681B6811
:101AE000184603F0B9FF7B681B68184603F0C3F87B
:101AF00003461A467B68DA607B681C6800F094FE37
:101B000001467B68DB68DBB21A46204602F0F8FD2E
:101B1000786807F078FD7B681B685A697B681B68EA
:101B200002F400525A617B681B68184603F0F3FE0A
:101B3000034603F01003102B61D17B681B689A6980
:101B40007B681B6822F010029A613B6A1B6A3B614A
:101B50003B6903F00F021346DB009B1A9B0003F561
:101B6000FC737A6813440433FB603B695B0C03F03D
:101B70000F03022B24D13A6947F6F0731340002B70
:101B800035D0FB68D9683B691B099BB2C3F30A03D4
:101B90009BB21A46386A03F06BFDFB68DA683B6952
:101BA0001B09C3F30A031A44FB68DA60FB689A69ED
:101BB0003B691B09C3F30A031A44FB689A6116E0E8
:101BC0003B695B0C03F00F03062B10D17B6803F518
:101BD000717308221946386A03F04AFDFB689A6956
:101BE0003B691B09C3F30A031A44FB689A617B68CB
:101BF0001B689A697B681B6842F010029A617B68D7
:101C00001B68184603F087FE034603F00803082B01
:101C10000AD1786807F0E9FC7B681B685A697B6821
:101C20001B6802F008025A617B681B68184603F0C3
:101C300072FE034603F48013B3F5801F0FD1002317
:101C40007B627B6ADBB21946786807F04BFD7B68E4
:101C50001B685A697B681B6802F480125A617B68B2
:101C60001B68184603F057FE034603F40013B3F550
:101C7000001F0FD100237B627B6ADBB219467868B4
:101C800007F01EFD7B681B685A697B681B6802F4BD
:101C900000125A617B681B68184603F03CFE03463D
:101CA00003F08043B3F1804F0AD1786807F02CFD30
:101CB0007B681B685A697B681B6802F080425A6126
:101CC0007B681B68184603F026FE034603F00403F6
:101CD000042B15D17B681B685B683B613B6903F093
:101CE0000403002B02D0786807F01CFD7B681B689A
:101CF00059687B681B683A690A435A6000E000BF74
:101D00003437BD4690BD80B582B000AF78600B46D9
:101D1000FB707B6893F8BC33012B01D1022313E0E5
:101D20007B68012283F8BC237B68FA7883F838202B
:101D30007B681B68FA781146184603F096FD7B68AD
:101D4000002283F8BC23002318460837BD4680BD17
:101D500080B584B000AF7860084611461A46034645
:101D6000FB700B463B801346BB700023FB7297F958
:101D70000330002B0FDAFB7803F00F021346DB0071
:101D80009B1A9B0038337A6813440433FB60FB686A
:101D900001225A700FE0FB7803F00F021346DB00BC
:101DA0009B1A9B0003F5FC737A6813440433FB60B1
:101DB000FB6800225A70FB7803F00F03DAB2FB686D
:101DC0001A703A88FB689A60FB68BA78DA70FB6828
:101DD0005B78002B04D0FB681B789AB2FB68DA8032
:101DE000BB78022B02D1FB6800221A717B6893F842
:101DF000BC33012B01D102230EE07B68012283F862
:101E0000BC237B681B68F968184602F059FF7B68A1
:101E1000002283F8BC23FB7A18461037BD4680BDEC
:101E200080B584B000AF78600B46FB7097F9033043
:101E3000002B0FDAFB7803F00F021346DB009B1A2E
:101E40009B0038337A6813440433FB60FB6801223B
:101E50005A700FE0FB7803F00F021346DB009B1A69
:101E60009B0003F5FC737A6813440433FB60FB6842
:101E700000225A70FB7803F00F03DAB2FB681A7085
:101E80007B6893F8BC33012B01D102230EE07B6801
:101E9000012283F8BC237B681B68F968184602F0AE
:101EA00097FF7B68002283F8BC2300231846103775
:101EB000BD4680BD80B586B000AFF8607A603B60FB
:101EC0000B46FB72FB7A03F00F021346DB009B1AF2
:101ED0009B0003F5FC73FA68134404337B617B6950
:101EE0007A68DA607B693A685A617B6900229A6194
:101EF0007B6900225A70FB7A03F00F03DAB27B6928
:101F00001A70FB681B69012B02D17A687B691A6120
:101F1000FB7A03F00F03002B09D1FB681868FB68FC
:101F20001B69DBB21A46796903F01AFA08E0FB680C
:101F30001868FB681B69DBB21A46796902F0CCFFAE
:101F4000002318461837BD4680BD80B483B000AF6B
:101F500078600B46FB70FB7803F00F02796813463C
:101F6000DB009B1A9B000B4403F505731B681846A6
:101F70000C37BD465DF8047B704780B586B000AF76
:101F8000F8607A603B600B46FB72FB7A03F00F024D
:101F90001346DB009B1A9B003833FA681344043362
:101FA0007B617B697A68DA607B693A685A617B6930
:101FB00000229A617B6901225A70FB7A03F00F03B9
:101FC000DAB27B691A70FB681B69012B02D17A684F
:101FD0007B691A61FB7A03F00F03002B09D1FB68C0
:101FE0001868FB681B69DBB21A46796903F0B8F917
:101FF00008E0FB681868FB681B69DBB21A46796960
:1020000002F06AFF002318461837BD4680BD80B530
:1020100084B000AF78600B46FB70FB7803F00F02D2
:102020007B685B689A4201D9012350E097F903303D
:10203000002B0FDAFB7803F00F021346DB009B1A2C
:102040009B0038337A6813440433FB60FB68012239
:102050005A700DE0FA781346DB009B1A9B0003F5DB
:10206000FC737A6813440433FB60FB6800225A70E7
:10207000FB6801229A70FB7803F00F03DAB2FB6869
:102080001A707B6893F8BC33012B01D102231EE048
:102090007B68012283F8BC237B681B68F9681846BB
:1020A00003F00FFBFB7803F00F03002B0AD17B68D2
:1020B00018687B681B69D9B27B6803F571731A468F
:1020C00003F000FD7B68002283F8BC230023184640
:1020D0001037BD4680BD80B584B000AF78600B4638
:1020E000FB70FB7803F00F027B685B689A4201D9B2
:1020F000012342E097F90330002B0FDAFB7803F05D
:102100000F021346DB009B1A9B0038337A68134496
:102110000433FB60FB6801225A700FE0FB7803F088
:102120000F021346DB009B1A9B0003F5FC737A68D1
:1021300013440433FB60FB6800225A70FB680022E2
:102140009A70FB7803F00F03DAB2FB681A707B68B1
:1021500093F8BC33012B01D102230EE07B680122EE
:1021600083F8BC237B681B68F968184603F017FBEB
:102170007B68002283F8BC23002318461037BD4635
:1021800080BD80B58AB002AF786039607B681B681B
:102190007B617B693B613A681346DB009B1A9B00BD
:1021A00038337A6813440433FB60FB689A69FB6830
:1021B0005B699A4201D901236CE0FB685A69FB68AC
:1021C0009B69D31AFB61FB689B68FA699A4202D942
:1021D000FB689B68FB61FB6903339B08BB612BE0D9
:1021E000FB685A69FB689B69D31AFB61FB689B68B3
:1021F000FA699A4202D9FB689B68FB61FB69033369
:102200009B08BB61FB68D9683B68DAB2FB6998B28E
:102210007B681B69DBB200930346786903F0F3F92E
:10222000FB68DA68FB691A44FB68DA60FB689A6944
:10223000FB691A44FB689A613B685A013B69134485
:1022400003F510639B699BB2BA699A4209D8FB688F
:102250009A69FB685B699A4203D2FB685B69002B51
:10226000BED1FB685A69FB689B699A4211D83B68EA
:1022700003F00F03012202FA03F3BB603B6903F58D
:1022800000635A6BBB68DB43396901F50061134099
:102290004B63002318462037BD4680BD80B586B00D
:1022A00000AF786039607B681B687B617B693B614C
:1022B0007B693C3304331B68FB603B685A013B6914
:1022C000134403F530639B68BB607B681B69012B7B
:1022D00040F0B380BB6803F00803002B28D0FB68F4
:1022E000704A93420ED9BB6803F40043002B09D017
:1022F0003B685A013B69134403F530631A464FF4B7
:1023000000439360786807F029F97B6818687B6858
:1023100003F571731A46012103F0D4FB3B685A019F
:102320003B69134403F530631A4608239360B3E016
:10233000BB6803F02003002B09D03B685A013B69BE
:10234000134403F530631A4620239360A4E0BB686E
:1023500003F02803002B40F09F80FB68514A934212
:102360000FD9BB6803F40043002B0AD03B685A0125
:102370003B69134403F530631A464FF400439360FE
:102380008AE079683A681346DB009B1A9B000B448D
:1023900003F501731A683B6859013B690B4403F567
:1023A00030631B69C3F31203D11A78683A68134685
:1023B000DB009B1A9B00034403F5057319607968E1
:1023C0003A681346DB009B1A9B000B4403F502732B
:1023D000196878683A681346DB009B1A9B0003442F
:1023E00003F501731B68194478683A681346DB00EB
:1023F0009B1A9B00034403F5027319603B68DBB230
:102400001946786807F0BCF83B68002B44D179681E
:102410003A681346DB009B1A9B000B4403F50473D8
:102420001B68002B38D17B6818687B6803F57173D3
:102430001A46012103F046FB2EE0FB681A4A93423C
:1024400024D1BB6803F40043002B0AD03B685A0137
:102450003B69134403F530631A464FF4004393601D
:102460001AE0BB6803F02003002B08D03B685A0138
:102470003B69134403F530631A46202393603B689D
:10248000DBB21946786807F07BF805E03B68DBB201
:102490001946786807F074F8002318461837BD46C7
:1024A00080BD00BF0A30544F0A31544F80B586B00A
:1024B00000AF786039607B681B687B617B693B613A
:1024C0007B693C3304331B68FB603B685A013B6902
:1024D000134403F530639B68BB607B681B69012B69
:1024E00013D1FB681F4A934222D9BB6803F400430F
:1024F000002B1DD03B685A013B69134403F5306340
:102500001A464FF40043936012E0FB68164A934268
:102510000ED1BB6803F40043002B09D03B685A017D
:102520003B69134403F530631A464FF4004393604C
:10253000786807F013F8FB680A4A93420CD97B6865
:102540001B69012B08D17B6818687B6803F57173E0
:102550001A46012103F0B6FA002318461837BD4683
:1025600080BD00BF0A30544F0A31544F80B485B04B
:1025700000AF78600B46FB7013463B807B681B689E
:102580005B6ABB60FB78002B07D13B8819047B6832
:102590001B68BA680A439A6228E07B681B689B6ADA
:1025A0001B0CBA681344BB600023FB730DE07B680F
:1025B0001A68FB7B40339B0013445B681B0CBA68B2
:1025C0001344BB60FB7B0133FB73FA7BFB78013B5D
:1025D0009A42ECD33B8818047B681968FB78013B6E
:1025E000BA68024340339B000B445A6000231846EC
:1025F0001437BD465DF8047B704780B483B000AFEC
:1026000078600B467B807B681B687A885A6200235F
:1026100018460C37BD465DF8047B704780B485B022
:1026200000AF78607B681B68FB607B680122C3F8A1
:10263000FC237B68002283F8F423FB689B6943F04A
:102640000062FB689A61FB685B6D43F0805343F066
:102650000303FA685365002318461437BD465DF836
:10266000047B704780B584B000AF786039607B68C8
:10267000002B01D10123CAE0674B1B6803F00F0355
:102680003A689A420CD9644B3A68D2B21A70624BDB
:102690001B6803F00F033A689A4201D00123B6E0A9
:1026A0007B681B6803F00203002B20D07B681B684B
:1026B00003F00403002B05D0584B9B68574A43F4A2
:1026C000E05393607B681B6803F00803002B05D080
:1026D000524B9B68514A43F4604393604F4B9B6855
:1026E00023F0F0027B689B684C4913438B607B6846
:1026F0001B6803F00103002B44D07B685B68012B4F
:1027000007D1464B1B6803F40033002B19D101237A
:102710007DE07B685B68022B03D07B685B68032BE2
:1027200007D13E4B1B6803F00073002B09D1012336
:102730006DE03A4B1B6803F00203002B01D101232B
:1027400065E0364B9B6823F003027B685B68334986
:1027500013438B60FDF702FFF8600AE0FDF7FEFE11
:102760000246FB68D31A41F28832934201D903230F
:102770004DE02A4B9B6803F00C027B685B689B0072
:102780009A42EBD1244B1B6803F00F033A689A423C
:102790000CD2214B3A68D2B21A701F4B1B6803F05F
:1027A0000F033A689A4201D0012330E07B681B682E
:1027B00003F00403002B08D0184B9B6823F4E0526D
:1027C0007B68DB68154913438B607B681B6803F0EB
:1027D0000803002B09D0114B9B6823F460427B68EF
:1027E0001B69DB000D4913438B6000F07BFB024645
:1027F0000A4B9B681B0903F00F030949CB5C22FAC3
:1028000003F3084A13600020FDF764FE0023184616
:102810001037BD4680BD00BF003C0240003802407A
:102820005CBC00081801002080B400AF034B1B689B
:102830001846BD465DF8047B704700BF18010020B4
:1028400080B500AFFFF7F0FF0246054B9B689B0A7F
:1028500003F007030349CB5C22FA03F3184680BD5B
:10286000003802406CBC000880B500AFFFF7DCFF09
:102870000246054B9B685B0B03F007030349CB5CE7
:1028800022FA03F3184680BD003802406CBC0008F1
:1028900080B58CB000AF786000237B6200233B6280
:1028A0000023FB610023BB6100237B6100233B61AC
:1028B0000023FB600023FB620023BB627B681B6874
:1028C00003F00103002B10D06F4BD3F88C3023F0B2
:1028D000C0627B689B6B6C491343C1F88C307B688A
:1028E0009B6B002B01D10123FB627B681B6803F00B
:1028F0000203002B10D0644BD3F88C3023F0C0526D
:102900007B68DB6B60491343C1F88C307B68DB6B01
:10291000002B01D10123FB627B681B6803F00403D9
:10292000002B17D0584BD3F88C3023F440127B681F
:102930001B6B55491343C1F88C307B681B6BB3F597
:10294000801F01D10123FB627B681B6B002B01D12F
:102950000123BB627B681B6803F00803002B17D0C0
:10296000494BD3F88C3023F440027B685B6B4649BB
:102970001343C1F88C307B685B6BB3F5800F01D1DA
:102980000123FB627B685B6B002B01D10123BB62DF
:102990007B681B6803F02003002B00F08A80002373
:1029A000BB60394B1B6C384A43F080531364364B81
:1029B0001B6C03F08053BB60BB68344B1B68334A0D
:1029C00043F480731360FDF7C9FD786208E0FDF7FA
:1029D000C5FD02467B6AD31A022B01D9032378E294
:1029E0002A4B1B6803F48073002BF0D0264B1B6F1F
:1029F00003F440733B623B6A002B2FD07B681B6C57
:102A000003F440733A6A9A4228D01F4B1B6F23F499
:102A100040733B621E4B01221A601D4B00221A605C
:102A2000194A3B6A1367184B1B6F03F00103012B14
:102A300014D1FDF793FD78620AE0FDF78FFD0246A1
:102A40007B6AD31A41F28832934201D9032340E2D0
:102A50000D4B1B6F03F00203002BEED07B681B6C49
:102A600003F44073B3F5407F14D1074B9B6823F404
:102A7000F8127B681B6C23F0704323F44073024907
:102A800013438B600CE000BF003802400070004030
:102A9000400E47424A4B9B68494A23F4F81393601F
:102AA000474B1A6F7B681B6CC3F30B0344491343FA
:102AB0000B677B681B6803F01003002B04D07B6856
:102AC00093F858203F4B1A607B681B6803F0800323
:102AD000002B0AD03A4BD3F8943023F440027B68A1
:102AE000DB6C37491343C1F894307B681B6803F0F3
:102AF0004003002B0AD0324BD3F8943023F080628D
:102B00007B689B6C2E491343C1F894307B681B682B
:102B100003F48073002B11D0294BD3F8943023F0A9
:102B200000627B685B6D26491343C1F894307B6873
:102B30005B6DB3F1006F01D10123BB627B681B6841
:102B400003F40073002B0AD01D4BD3F8943023F00C
:102B500080527B685B6C1A491343C1F894307B68E0
:102B60001B6803F48063002B11D0154BD3F894300D
:102B700023F000527B681B6D11491343C1F8943058
:102B80007B681B6DB3F1005F01D10123FB62FB6A1F
:102B9000012B05D07B681B68B3F5006F40F0FF8008
:102BA000094B00221A60FDF7D9FC78620EE0FDF7B0
:102BB000D5FC02467B6AD31A022B07D9032388E18E
:102BC00000380240E0114742680047427E4B1B68D4
:102BD00003F00063002BEAD17B681B6803F001035C
:102BE000002B03D07B689B6B002B09D07B681B6894
:102BF00003F00203002B28D07B68DB6B002B24D171
:102C0000714BD3F884301B0C03F0030301335B00DA
:102C1000FB616D4BD3F884301B0E03F00F03BB61D7
:102C20007B685A687B689B689B011A43FB695B0859
:102C3000013B1B041A43BB691B061A437B685B6993
:102C40001B0761491343C1F884307B681B6803F09C
:102C50000403002B04D07B681B6BB3F5801F0AD0E4
:102C60007B681B6803F00803002B35D07B685B6B27
:102C7000B3F5800F30D1544BD3F884301B0C03F0E4
:102C8000030301335B00FB614F4BD3F884301B0F10
:102C900003F007037B617B685A687B689B689B0134
:102CA0001A43FB695B08013B1B041A437B681B69E1
:102CB0001B061A437B691B0743491343C1F8843041
:102CC000414BD3F88C3023F01F027B689B6A013B99
:102CD0003D491343C1F88C307B681B6803F4806363
:102CE000002B29D07B681B6DB3F1005F24D1364BDC
:102CF000D3F884301B0C03F0030301335B00BB618A
:102D0000314BD3F884301B0F03F007037B617B68E2
:102D10005A687B689B689B011A437B68DB685B0889
:102D2000013B1B041A43BB691B061A437B691B0743
:102D300025491343C1F884307B681B6803F40063A2
:102D4000002B16D07B685A687B689B689B011A43EE
:102D50007B68DB685B08013B1B041A437B681B69CB
:102D60001B061A437B685B691B0717491343C1F8AD
:102D70008430164B01221A60FDF7F0FB786208E000
:102D8000FDF7ECFB02467B6AD31A022B01D9032321
:102D90009FE00D4B1B6803F00063002BF0D0BB6A73
:102DA000012B40F095800A4B00221A60FDF7D6FBFC
:102DB00078620FE0FDF7D2FB02467B6AD31A022B42
:102DC00008D9032385E000BF00380240680047426D
:102DD00070004742414B1B6803F00053B3F1005FA2
:102DE000E8D07B681B6803F00403002B03D07B68EA
:102DF0001B6B002B09D07B681B6803F00803002BBA
:102E00002BD07B685B6B002B27D1344BD3F88830F9
:102E10001B0C03F0030301335B003B617B689A6981
:102E20007B68DB699B011A433B695B08013B1B0420
:102E30001A437B685B6A1B0628491343C1F8883034
:102E4000264BD3F88C3023F4F8527B68DB6A013BC5
:102E50001B0222491343C1F88C307B681B6803F4C2
:102E60008073002B1DD07B685B6DB3F1006F18D1B0
:102E70001A4BD3F888301B0E03F00F03FB607B68FE
:102E80009A697B68DB699B011A437B681B6A5B0854
:102E9000013B1B041A43FB681B0610491343C1F88E
:102EA00088300F4B01221A60FDF758FB786208E06A
:102EB000FDF754FB02467B6AD31A022B01D9032388
:102EC00007E0064B1B6803F00053B3F1005FEFD13E
:102ED000002318463037BD4680BD00BF0038024091
:102EE000700047422DE9B04F88B000AF00237B61EE
:102EF0000023FB6100233B610023FB600023BB61D7
:102F0000CE4B9B6803F00C030C2B00F28D8101A2C9
:102F100052F823F0492F000829320008293200080E
:102F2000293200084F2F00082932000829320008F2
:102F300029320008552F00082932000829320008DC
:102F400029320008C9300008BD4BBB616FE1BD4BA1
:102F5000BB616CE1B94B5B6803F03F037B61B74B2E
:102F60005B6803F48003002B53D0B44B5B689B0970
:102F70001A464FF0000340F2FF104FF0000102EA42
:102F800000043C600B407B60D7E9004520462946A1
:102F90004FF000024FF000034B0143EAD0634201BF
:102FA000104619462346C01A2B4661EB03014FF029
:102FB00000024FF000038B0143EA90638201121A72
:102FC00063EB01034FF000004FF00001D90041EA2C
:102FD0005271D00002460B4621465218294643EB57
:102FE00001010B464FF000004FF00001590241EA89
:102FF000D251500202460B46104619467B691A46CA
:103000004FF00003FDF7E4F802460B461346FB6160
:103010004CE08A4B5B689B091A464FF0000340F274
:10302000FF104FF0000102EA000A03EA010B5046CC
:1030300059464FF000024FF000034B0143EAD063C2
:10304000420110461946B0EB0A0061EB0B014FF04C
:1030500000024FF000038B0143EA90638201121AD1
:1030600063EB01034FF000004FF00001D90041EA8B
:103070005271D00002460B4612EB0A0243EB0B03DF
:103080004FF000004FF00001990241EA9251900286
:1030900002460B46104619467B691A464FF000035C
:1030A000FDF796F802460B461346FB61634B5B68DF
:1030B0001B0C03F0030301335B003B61FA693B69BE
:1030C000B2FBF3F3BB61B2E05C4B5B6803F03F0320
:1030D0007B615A4B5B6803F48003002B4DD0574B48
:1030E0005B689B091A464FF0000340F2FF104FF057
:1030F000000102EA000803EA0109404649464FF090
:1031000000024FF000034B0143EAD0634201104636
:103110001946B0EB080061EB09014FF000024FF0D7
:1031200000038B0143EA90638201121A63EB0103EF
:103130004FF000004FF00001D90041EA5271D00079
:1031400002460B4612EB080243EB09034FF0000066
:103150004FF00001590241EAD251500202460B469B
:10316000104619467B691A464FF00003FDF730F808
:1031700002460B461346FB614AE0304B5B689B09F5
:103180001A464FF0000340F2FF104FF0000102EA30
:10319000000403EA0105204629464FF000024FF0E3
:1031A00000034B0143EAD063420110461946001B5D
:1031B00061EB05014FF000024FF000038B0143EA81
:1031C00090638201121A63EB01034FF000004FF08D
:1031D0000001D90041EA5271D00002460B46121993
:1031E00045EB03034FF000004FF00001990241EA64
:1031F0009251900202460B46104619467B691A46C8
:103200004FF00003FCF7E4FF02460B461346FB6158
:103210000A4B5B681B0F03F00703FB60FA69FB684E
:10322000B2FBF3F3BB6102E0054BBB6100BFBB69BE
:1032300018462037BD46BDE8B08F00BF00380240B9
:103240000024F40000127A0080B586B000AF7860E8
:1032500000233B617B681B6803F00103002B00F037
:103260008380954B9B6803F00C03042B19D0924B81
:103270009B6803F00C03082B06D18F4B5B6803F4AB
:103280008003B3F5800F0CD08B4B9B6803F00C03CD
:103290000C2B12D1884B5B6803F48003B3F5800FCD
:1032A0000BD1854B1B6803F40033002B5BD07B688C
:1032B0005B68002B57D1012316E27B685B68B3F58E
:1032C000803F06D17C4B1B687B4A43F480331360FC
:1032D0001DE07B685B68B3F5A02F0CD1764B1B68B3
:1032E000754A43F480231360734B1B68724A43F49E
:1032F000803313600BE0704B1B686F4A23F48033FC
:1033000013606D4B1B686C4A23F4802313607B6849
:103310005B68002B13D0FDF721F9386108E0FDF759
:103320001DF902463B69D31A642B01D90323DBE163
:10333000614B1B6803F40033002BF0D014E0FDF761
:103340000DF9386108E0FDF709F902463B69D31A27
:10335000642B01D90323C7E1574B1B6803F40033E7
:10336000002BF0D100E000BF7B681B6803F0020374
:10337000002B6FD0504B9B6803F00C03002B17D031
:103380004D4B9B6803F00C03082B05D14A4B5B683F
:1033900003F48003002B0BD0474B9B6803F00C0316
:1033A0000C2B1CD1444B5B6803F48003002B16D11B
:1033B000414B1B6803F00203002B05D07B68DB68E0
:1033C000012B01D001238FE13B4B1B6823F0F80256
:1033D0007B681B69DB00384913430B603AE07B686C
:1033E000DB68002B20D0354B01221A60FDF7B6F8C0
:1033F000386108E0FDF7B2F802463B69D31A022BA8
:1034000001D9032370E12C4B1B6803F00203002B4E
:10341000F0D0294B1B6823F0F8027B681B69DB00A6
:10342000254913430B6015E0244B00221A60FDF779
:1034300095F8386108E0FDF791F802463B69D31A28
:10344000022B01D903234FE11B4B1B6803F002033E
:10345000002BF0D17B681B6803F00803002B37D0EA
:103460007B685B69002B16D0154B01221A60FDF7B3
:1034700075F8386108E0FDF771F802463B69D31A28
:10348000022B01D903232FE10B4B5B6F03F00203E7
:10349000002BF0D01CE00A4B00221A60FDF75EF80A
:1034A00038610FE0FDF75AF802463B69D31A022B48
:1034B00008D9032318E100BF00380240000047424A
:1034C000800E47428A4B5B6F03F00203002BE9D169
:1034D0007B681B6803F00403002B00F09780002337
:1034E000FB75834B1B6C03F08053002B0FD1002323
:1034F000FB607F4B1B6C7E4A43F0805313647C4B14
:103500001B6C03F08053FB60FB680123FB75794B58
:103510001B6803F48073002B18D1764B1B68754A27
:1035200043F480731360FDF719F8386108E0FDF784
:1035300015F802463B69D31A022B01D90323D3E0C5
:103540006C4B1B6803F48073002BF0D07B689B6886
:10355000012B06D1664B1B6F654A43F001031367CD
:103560001CE07B689B68052B0CD1614B1B6F604A8C
:1035700043F0040313675E4B1B6F5D4A43F0010386
:1035800013670BE05A4B1B6F594A23F00103136773
:10359000574B1B6F564A23F0040313677B689B68E5
:1035A000002B15D0FCF7DAFF38610AE0FCF7D6FFF4
:1035B00002463B69D31A41F28832934201D9032370
:1035C00092E04B4B1B6F03F00203002BEED014E094
:1035D000FCF7C4FF38610AE0FCF7C0FF02463B6914
:1035E000D31A41F28832934201D903237CE0404B45
:1035F0001B6F03F00203002BEED1FB7D012B05D1E5
:103600003B4B1B6C3A4A23F0805313647B689B69E5
:10361000002B68D0364B9B6803F00C03082B60D05E
:103620007B689B69022B45D1334B00221A60FCF763
:1036300095FF386108E0FCF791FF02463B69D31A19
:10364000022B01D903234FE0294B1B6803F00073C1
:10365000002BF0D17B68DA697B681B6A1A437B68B0
:103660005B6A9B011A437B689B6A5B08013B1B04F6
:103670001A437B68DB6A1B061A437B681B6B1B07BC
:103680001B4913434B601C4B01221A60FCF766FF79
:10369000386108E0FCF762FF02463B69D31A022B4F
:1036A00001D9032320E0124B1B6803F00073002BA9
:1036B000F0D018E0104B00221A60FCF74FFF386181
:1036C00008E0FCF74BFF02463B69D31A022B01D9F5
:1036D000032309E0064B1B6803F00073002BF0D1B5
:1036E00001E0012300E0002318461837BD4680BDE5
:1036F00000380240007000406000474280B582B050
:1037000000AF78607B68002B01D101231DE07B684E
:1037100093F83D30DBB2002B06D17B68002283F8A2
:103720003C20786805F03CFB7B68022283F83D2052
:103730007B681A687B6804331946104600F038F934
:103740007B68012283F83D20002318460837BD46D8
:1037500080BD80B582B000AF78607B68002B01D15E
:1037600001231DE07B6893F83D30DBB2002B06D1CE
:103770007B68002283F83C20786805F06DFA7B684E
:10378000022283F83D207B681A687B68043319465F
:10379000104600F00DF97B68012283F83D200023DC
:1037A00018460837BD4680BD80B584B000AF78604C
:1037B00039607B681B6801223968184600F048FBB5
:1037C0007B681B68154A934204D07B681B68144AC7
:1037D000934201D1012300E00023002B07D07B6836
:1037E0001B685A6C7B681B6842F400425A647B6811
:1037F0001B689B6803F00703FB60FB68062B07D080
:103800007B681B681A687B681B6842F001021A60BB
:10381000002318461037BD4680BD00BF00000140A0
:103820000004014080B584B000AFF860B9607A60F0
:10383000FB6893F83C30012B01D10223B4E0FB6814
:10384000012283F83C20FB68022283F83D207B683C
:103850000C2B00F29F8001A252F823F0913800084F
:10386000953900089539000895390008D1380008C5
:103870009539000895390008953900081339000872
:103880009539000895390008953900085339000822
:10389000FB681B68B968184600F02AF9FB681B68CA
:1038A0009A69FB681B6842F008029A61FB681B6812
:1038B0009A69FB681B6822F004029A61FB681B6826
:1038C0009969BB681A69FB681B680A439A6162E0E0
:1038D000FB681B68B968184600F07AF9FB681B683A
:1038E0009A69FB681B6842F400629A61FB681B6876
:1038F0009A69FB681B6822F480629A61FB681B6806
:103900009969BB681B691A02FB681B680A439A61C4
:1039100041E0FB681B68B968184600F0CFF9FB6806
:103920001B68DA69FB681B6842F00802DA61FB6811
:103930001B68DA69FB681B6822F00402DA61FB6825
:103940001B68D969BB681A69FB681B680A43DA619E
:1039500021E0FB681B68B968184600F023FAFB6891
:103960001B68DA69FB681B6842F40062DA61FB6875
:103970001B68DA69FB681B6822F48062DA61FB6805
:103980001B68D969BB681B691A02FB681B680A437C
:10399000DA6100E000BFFB68012283F83D20FB688C
:1039A000002283F83C20002318461037BD4680BD16
:1039B00080B485B000AF786039607B681B68FB60BD
:1039C0007B68404A934213D07B68B3F1804F0FD09D
:1039D0007B683D4A93420BD07B683C4A934207D0B8
:1039E0007B683B4A934203D07B683A4A934208D1B2
:1039F000FB6823F07003FB603B685B68FA68134365
:103A0000FB607B682F4A93422BD07B68B3F1804FD9
:103A100027D07B682C4A934223D07B682B4A934261
:103A20001FD07B682A4A93421BD07B68294A934265
:103A300017D07B68284A934213D07B68274A934269
:103A40000FD07B68264A93420BD07B68254A93426D
:103A500007D07B68244A934203D07B68234A934271
:103A600008D1FB6823F44073FB603B68DB68FA68AD
:103A70001343FB60FB6823F080023B685B691343E0
:103A8000FB607B68FA681A603B689A687B68DA6258
:103A90003B681A687B689A627B680A4A934203D043
:103AA0007B680C4A934203D13B681A697B681A63AE
:103AB0007B6801225A6100BF1437BD465DF8047B64
:103AC000704700BF000001400004004000080040B3
:103AD000000C00400004014000400140004401404F
:103AE0000048014000180040001C00400020004039
:103AF00080B487B000AF786039607B681B6A23F0C0
:103B000001027B681A627B681B6A7B617B685B6869
:103B10003B617B689B69FB60FB6823F07003FB6083
:103B2000FB6823F00303FB603B681B68FA681343E0
:103B3000FB607B6923F002037B613B689B687A69C9
:103B400013437B617B68204A934203D07B681F4A02
:103B500093420CD17B6923F008037B613B68DB68EF
:103B60007A6913437B617B6923F004037B617B6883
:103B7000154A934203D07B68144A934211D13B69A2
:103B800023F480733B613B6923F400733B613B6822
:103B90005B693A6913433B613B689B693A6913432C
:103BA0003B617B683A695A607B68FA689A613B6856
:103BB0005A687B685A637B687A691A6200BF1C374F
:103BC000BD465DF8047B70470000014000040140E1
:103BD00080B487B000AF786039607B681B6A23F0DF
:103BE00010027B681A627B681B6A7B617B685B687A
:103BF0003B617B689B69FB60FB6823F4E043FB60EF
:103C0000FB6823F44073FB603B681B681B02FA6887
:103C10001343FB607B6923F020037B613B689B6857
:103C20001B017A6913437B617B68224A934203D06C
:103C30007B68214A93420DD17B6923F080037B612D
:103C40003B68DB681B017A6913437B617B6923F066
:103C500040037B617B68174A934203D07B68164A16
:103C6000934213D13B6923F480633B613B6923F4A6
:103C700000633B613B685B699B003A6913433B61AE
:103C80003B689B699B003A6913433B617B683A69D7
:103C90005A607B68FA689A613B685A687B689A63E5
:103CA0007B687A691A6200BF1C37BD465DF8047BE9
:103CB000704700BF000001400004014080B487B09D
:103CC00000AF786039607B681B6A23F480727B6880
:103CD0001A627B681B6A7B617B685B683B617B68FF
:103CE000DB69FB60FB6823F07003FB60FB6823F07B
:103CF0000303FB603B681B68FA681343FB607B6946
:103D000023F400737B613B689B681B027A69134351
:103D10007B617B68214A934203D07B68204A9342AF
:103D20000DD17B6923F400637B613B68DB681B0278
:103D30007A6913437B617B6923F480637B617B68D1
:103D4000164A934203D07B68154A934213D13B69CC
:103D500023F480533B613B6923F400533B613B6890
:103D60005B691B013A6913433B613B689B691B011B
:103D70003A6913433B617B683A695A607B68FA6829
:103D8000DA613B685A687B68DA637B687A691A6231
:103D900000BF1C37BD465DF8047B70470000014042
:103DA0000004014080B487B000AF786039607B6860
:103DB0001B6A23F480527B681A627B681B6A3B6132
:103DC0007B685B687B617B68DB69FB60FB6823F475
:103DD000E043FB60FB6823F44073FB603B681B68B7
:103DE0001B02FA681343FB603B6923F400533B61F9
:103DF0003B689B681B033A6913433B617B68124A2B
:103E0000934203D07B68114A934209D17B6923F422
:103E100080437B613B685B699B017A6913437B61EB
:103E20007B687A695A607B68FA68DA613B685A682D
:103E30007B681A647B683A691A6200BF1C37BD460A
:103E40005DF8047B704700BF0000014000040140A2
:103E500080B487B000AFF860B9607A60BB6803F0E7
:103E60001F03012202FA03F37B61FB681A6A7B6974
:103E7000DB431A40FB681A62FB681A6ABB6803F0EE
:103E80001F03796801FA03F31A43FB681A6200BF43
:103E90001C37BD465DF8047B704780B485B000AF29
:103EA000786039607B6893F83C30012B01D10223A4
:103EB00032E07B68012283F83C207B68022283F891
:103EC0003D207B681B685B68FB607B681B689B68A8
:103ED000BB60FB6823F07003FB603B681B68FA68FB
:103EE0001343FB60BB6823F08003BB603B685B68E7
:103EF000BA681343BB607B681B68FA685A607B68CA
:103F00001B68BA689A607B68012283F83D207B6851
:103F1000002283F83C20002318461437BD465DF884
:103F2000047B704780B485B000AF786039600023AF
:103F3000FB607B6893F83C30012B01D102233DE00C
:103F40007B68012283F83C20FB6823F0FF023B687A
:103F5000DB681343FB60FB6823F440723B689B689B
:103F60001343FB60FB6823F480623B685B68134388
:103F7000FB60FB6823F400623B681B681343FB6033
:103F8000FB6823F480523B681B691343FB60FB68AA
:103F900023F400523B685B691343FB60FB6823F426
:103FA00080423B68DB691343FB607B681B68FA68EF
:103FB0005A647B68002283F83C200023184614379B
:103FC000BD465DF8047B704780B582B000AF786075
:103FD0007B68002B01D101233FE07B6893F83930E7
:103FE000DBB2002B06D17B68002283F8382078688A
:103FF00005F04CF97B68242283F839207B681B6824
:10400000DA687B681B6822F40052DA60786800F096
:104010000BF97B681B681A697B681B6822F4904265
:104020001A617B681B685A697B681B6822F02A0248
:104030005A617B681B68DA687B681B6842F400522F
:10404000DA607B680022DA637B68202283F83920FB
:104050007B68202283F83A20002318460837BD46A3
:1040600080BD80B588B002AFF860B9603B60134690
:10407000FB8000237B61FB6893F83930DBB2202B97
:1040800040F08380BB68002B02D0FB88002B01D15D
:1040900001237BE0FB6893F83830012B01D1022328
:1040A00074E0FB68012283F83820FB680022DA63A1
:1040B000FB68212283F83920FCF750FA7861FB680D
:1040C000FA889A84FB68FA88DA8442E0FB68DB8C21
:1040D0009BB2013B9AB2FB68DA84FB689B68B3F53C
:1040E000805F22D13B6800937B6900228021F868C1
:1040F00000F050F80346002B01D0032346E0BB68D4
:104100003B613B691B881A46FB681B68C2F30802C7
:104110005A60FB681B69002B03D1BB680233BB608C
:1041200017E0BB680133BB6013E03B6800937B6919
:1041300000228021F86800F02DF80346002B01D002
:10414000032323E0BB685A1CBA601A78FB681B681B
:104150005A60FB68DB8C9BB2002BB7D13B680093A5
:104160007B6900224021F86800F014F80346002B18
:1041700001D003230AE0FB68202283F83920FB6882
:10418000002283F83820002300E002231846183765
:10419000BD4680BD80B584B000AFF860B9603B60BB
:1041A0001346FB712CE0BB69B3F1FF3F28D0BB691C
:1041B000002B07D0FCF7D2F902463B68D31ABA6944
:1041C0009A421DD2FB681B68DA68FB681B6822F400
:1041D000D072DA60FB681B685A69FB681B6822F0C2
:1041E00001025A61FB68202283F83920FB682022F3
:1041F00083F83A20FB68002283F8382003230FE07D
:10420000FB681B681A68BB681340BA689A420CBF07
:1042100001230023DBB21A46FB799A42C3D0002364
:1042200018461037BD4680BDB0B584B000AF786089
:104230007B681B681B6923F440517B68DA687B68E4
:104240001B680A431A617B689A687B681B691A437A
:104250007B685B691A437B68DB691343FB607B689F
:104260001B68DB6823F4164323F00C037A6812689A
:10427000F9680B43D3607B681B685B6923F440716A
:104280007B689A697B681B680A435A617B68DB69B3
:10429000B3F5004F40F0E4807B681B68AB4A934263
:1042A00004D07B681B68AA4A93426CD1FEF7DCFA03
:1042B000024613469B0013449A001A447B685B68CD
:1042C0005B00B2FBF3F3A34AA2FB03235B091C01CF
:1042D000FEF7CAFA024613469B0013449A001A449A
:1042E0007B685B685B00B2FBF3F5FEF7BDFA024644
:1042F00013469B0013449A001A447B685B685B007A
:10430000B2FBF3F3934AA2FB03235B09642202FB93
:1043100003F3EB1ADB0032338E4AA2FB03235B0963
:104320005B0003F4F8731C44FEF79EFA0246134642
:104330009B0013449A001A447B685B685B00B2FBE5
:10434000F3F5FEF791FA024613469B0013449A00D8
:104350001A447B685B685B00B2FBF3F37D4AA2FB07
:1043600003235B09642202FB03F3EB1ADB00323305
:10437000784AA2FB03235B0903F007027B681B68F2
:1043800022449A6054E1FEF75BFA024613469B0012
:1043900013449A001A447B685B685B00B2FBF3F33A
:1043A0006C4AA2FB03235B091C01FEF749FA024693
:1043B00013469B0013449A001A447B685B685B00B9
:1043C000B2FBF3F5FEF73CFA024613469B0013449A
:1043D0009A001A447B685B685B00B2FBF3F35D4AAA
:1043E000A2FB03235B09642202FB03F3EB1ADB004D
:1043F0003233584AA2FB03235B095B0003F4F873D2
:104400001C44FEF71DFA024613469B0013449A0013
:104410001A447B685B685B00B2FBF3F5FEF710FAA9
:10442000024613469B0013449A001A447B685B685B
:104430005B00B2FBF3F3474AA2FB03235B09642250
:1044400002FB03F3EB1ADB003233424AA2FB0323E5
:104450005B0903F007027B681B6822449A60E7E06F
:104460007B681B68394A934204D07B681B68384AD2
:10447000934271D1FEF7F8F9024613469B001344AC
:104480009A001A447B685B689B00B2FBF3F3314AE5
:10449000A2FB03235B091C01FEF7E6F90246134663
:1044A0009B0013449A001A447B685B689B00B2FB34
:1044B000F3F5FEF7D9F9024613469B0013449A0020
:1044C0001A447B685B689B00B2FBF3F3214AA2FBB2
:1044D00003235B09642202FB03F3EB1A1B01323353
:1044E0001C4AA2FB03235B0903F0F0031C44FEF704
:1044F000BBF9024613469B0013449A001A447B689A
:104500005B689B00B2FBF3F5FEF7AEF9024613467B
:104510009B0013449A001A447B685B689B00B2FBC3
:10452000F3F30C4AA2FB03235B09642202FB03F3AF
:10453000EB1A1B013233074AA2FB03235B0903F08A
:104540000F027B681B6822449A6071E000100140F2
:10455000001401401F85EB51FEF772F90246134625
:104560009B0013449A001A447B685B689B00B2FB73
:10457000F3F3314AA2FB03235B091C01FEF760F948
:10458000024613469B0013449A001A447B685B68FA
:104590009B00B2FBF3F5FEF753F9024613469B006E
:1045A00013449A001A447B685B689B00B2FBF3F3E8
:1045B000214AA2FB03235B09642202FB03F3EB1AEB
:1045C0001B0132331C4AA2FB03235B0903F0F003F7
:1045D0001C44FEF735F9024613469B0013449A002B
:1045E0001A447B685B689B00B2FBF3F5FEF728F981
:1045F000024613469B0013449A001A447B685B688A
:104600009B00B2FBF3F30C4AA2FB03235B09642279
:1046100002FB03F3EB1A1B013233074AA2FB03230D
:104620005B0903F00F027B681B6822449A60FFE776
:1046300000BF1037BD46B0BD1F85EB5184B080B5BB
:1046400084B000AF786007F11C0080E80E003B6B7F
:10465000012B22D17B689B6B23F480327B689A63A9
:104660007B68DB6823F4840323F040037A68D3601B
:104670007B68DB6823F440127B68DA60FB6C012BFB
:1046800005D17B68DB6843F480127B68DA60786868
:1046900001F076FA0346FB731AE07B68DB6843F0AF
:1046A00040027B68DA60786801F06AFA0346FB73BF
:1046B0003B6C002B06D17B689B6B43F480327B689C
:1046C0009A6305E07B689B6B23F480327B689A6376
:1046D000BB6A012B0BD17B689B6843F006027B68A9
:1046E0009A607B689B6843F020027B689A60FB7B42
:1046F00018461037BD46BDE8804004B07047000042
:1047000080B487B000AFF860B9601346FB71FB79E5
:10471000022B65D1BB68414A934206D9BB68404A27
:10472000934202D20F237B6162E0BB683C4A934212
:1047300006D3BB683B4A934202D20E237B6157E00B
:10474000BB68384A934206D3BB68374A934202D2C9
:104750000D237B614CE0BB68334A934206D3BB68B0
:10476000324A934202D80C237B6141E0BB682F4A56
:10477000934206D9BB682E4A934202D80B237B6131
:1047800036E0BB682A4A934206D9BB68294A93425D
:1047900002D80A237B612BE0BB68264A934206D9E4
:1047A000BB68254A934202D209237B6120E0BB68A3
:1047B000214A934206D3BB68204A934202D8082379
:1047C0007B6115E0BB681D4A934206D9BB681C4A51
:1047D000934202D207237B610AE006237B6107E054
:1047E000FB79002B02D109237B6101E009237B6166
:1047F000FB68DB6823F47052FB68DA60FB68DA68F8
:104800007B699B0203F470531A43FB68DA60002350
:1048100018461C37BD465DF8047B7047BFACD80016
:10482000C0E1E4000024F400807306019F491A01EE
:10483000FF2C31013FA44C0100366E011FABA601D5
:104840000048E80180B483B000AF78607B689B6863
:1048500043F001027B689A60002318460C37BD467E
:104860005DF8047B704780B483B000AF78607B68EC
:104870009B6823F001027B689A60002318460C377E
:10488000BD465DF8047B704780B582B000AF7860AC
:104890000B46FB707B68DB6823F0C0427B68DA6004
:1048A000FB78012B06D17B68DB6843F000527B6804
:1048B000DA600BE0FB78002B06D17B68DB6843F005
:1048C00080427B68DA6001E0012303E03220FBF7DD
:1048D00051FE002318460837BD4680BD84B080B520
:1048E00086B000AF786007F1240080E80E00002356
:1048F000FB757B68FB6000233B6109E07A683B69DC
:1049000040339B00134400225A603B6901333B61F2
:104910003B690E2BF2D9FB6C002B12D17B689B6B91
:1049200023F400127B689A637B681B6843F04002A3
:104930007B681A607B681B6843F080027B681A60A2
:1049400005E07B689B6B43F400127B689A63FB680D
:1049500003F560631A4600231360FB6803F50063E8
:104960001946FB6803F500631A460B681360BB6BBE
:10497000012B0CD1FB6A002B04D10021786800F0D8
:1049800061F908E00121786800F05CF903E0032197
:10499000786800F057F91021786800F00BF90346A9
:1049A000002B01D00123FB75786800F029F903463C
:1049B000002B01D00123FB75FB6803F500631A4649
:1049C00000231361FB6803F500631A46002353615B
:1049D000FB6803F500631A460023D36100233B61A3
:1049E00043E03B695A01FB68134403F510631B68FD
:1049F00003F00043B3F1004F18D13B69002B0AD1FB
:104A00003B695A01FB68134403F510631A464FF0E3
:104A10000063136013E03B695A01FB68134403F51C
:104A200010631A464FF09043136008E03B695A0147
:104A3000FB68134403F510631A46002313603B69B7
:104A40005A01FB68134403F510631A4600231361EF
:104A50003B695A01FB68134403F510631A464FF68D
:104A60007F3393603B6901333B617B6A3A699A42C9
:104A7000B7D300233B6143E03B695A01FB68134411
:104A800003F530631B6803F00043B3F1004F18D106
:104A90003B69002B0AD13B695A01FB68134403F5BB
:104AA00030631A464FF00063136013E03B695A010C
:104AB000FB68134403F530631A464FF090431360CC
:104AC00008E03B695A01FB68134403F530631A465A
:104AD000002313603B695A01FB68134403F53063FC
:104AE0001A46002313613B695A01FB68134403F51E
:104AF00030631A464FF67F3393603B6901333B6165
:104B00007B6A3A699A42B7D3FB6803F500631B6975
:104B1000FA6802F5006223F4807313613B6B012B8A
:104B200011D1FB6803F500631A46204B1363FB6841
:104B300003F500631B6BFA6802F5006243F48033EF
:104B400043F0030313637B6800229A617B686FF074
:104B500080425A613B6B002B05D17B689B6943F017
:104B600010027B689A617B689A69114B13437A68DB
:104B70009361FB6B002B05D07B689B6943F00802B7
:104B80007B689A61FB6C012B07D17B689B6943F0C2
:104B9000804343F004037A689361FB7D184618371D
:104BA000BD46BDE8804004B0704700BF00018000F2
:104BB00000383C8080B485B000AF78603960002355
:104BC000FB603B689B0143F020027B681A61FB6835
:104BD0000133FB60FB68094A934201D9032306E0D5
:104BE0007B681B6903F02003202BF0D000231846BC
:104BF0001437BD465DF8047B704700BF400D0300CD
:104C000080B485B000AF78600023FB607B68102221
:104C10001A61FB680133FB60FB68094A934201D9C2
:104C2000032306E07B681B6903F01003102BF0D010
:104C3000002318461437BD465DF8047B704700BF5B
:104C4000400D030080B485B000AF78600B46FB7068
:104C50007B68FB60FB6803F500631A68FB78F96802
:104C600001F5006113430B60002318461437BD465D
:104C70005DF8047B704780B487B000AF78607B68D4
:104C80003B613B6903F500639B6803F00603FB602F
:104C9000FB68002B02D10023FB750AE0FB68022BA6
:104CA00002D0FB68062B02D10223FB7501E00F2323
:104CB000FB75FB7D18461C37BD465DF8047B7047CD
:104CC00080B485B000AF786039607B68FB603B687A
:104CD0001B78BB603B685B78012B3AD1FB6803F51E
:104CE0000063DA693B681B7803F00F03012101FAC6
:104CF00003F39BB2F96801F500611343CB61BB6814
:104D00005A01FB68134403F510631B6803F4004366
:104D1000002B55D1BB685A01FB68134403F510639F
:104D20001A683B689B68C3F30A013B68DB789B0405
:104D30001943BB689B050B431343BA685101FA68DA
:104D40000A4402F5106243F0805343F400431360B9
:104D500036E0FB6803F50063DA693B681B7803F013
:104D60000F03012101FA03F31B04F96801F5006147
:104D70001343CB61BB685A01FB68134403F53063EE
:104D80001B6803F40043002B1AD1BB685A01FB686F
:104D9000134403F530631A683B689B68C3F30A0148
:104DA0003B68DB789B040B431343BA685101FA68F4
:104DB0000A4402F5306243F0805343F40043136029
:104DC000002318461437BD465DF8047B7047000089
:104DD00080B485B000AF786039607B68FB603B6869
:104DE0001B78BB603B685B78012B35D1FB6803F512
:104DF0000063DA6B3B681B7803F00F03012101FAB3
:104E000003F39BB2DB43F96801F500611340CB6308
:104E1000FB6803F50063DA693B681B7803F00F0356
:104E2000012101FA03F39BB2DB43F96801F500614C
:104E30001340CB61BB685A01FB68134403F5106350
:104E40001A68BB685901FB680B4403F510631946E7
:104E50001F4B13400B6034E0FB6803F50063DA6B13
:104E60003B681B7803F00F03012101FA03F31B04D5
:104E7000DB43F96801F500611340CB63FB6803F580
:104E80000063DA693B681B7803F00F03012101FA24
:104E900003F31B04DB43F96801F500611340CB61A8
:104EA000BB685A01FB68134403F530631A68BB689A
:104EB0005901FB680B4403F530631946054B134059
:104EC0000B60002318461437BD465DF8047B70471D
:104ED000007833EC0078F3EF80B58AB002AFF86069
:104EE000B9601346FB71FB68FB61BB681B78BB6153
:104EF000BB685B78012B40F05C81BB685B69002B71
:104F000032D1BB695A01FB69134403F510631B6975
:104F1000BA695101FA690A4402F5106223F0FF539D
:104F200023F4C0131361BB695A01FB69134403F5F1
:104F300010631B69BA695101FA690A4402F51062EB
:104F400043F400231361BB695A01FB69134403F561
:104F500010631B69BA695101FA690A4402F51062CB
:104F6000DB0CDB04136174E0BB695A01FB69134479
:104F700003F510631B69BA695101FA690A4402F525
:104F80001062DB0CDB041361BB695A01FB6913443B
:104F900003F510631B69BA695101FA690A4402F505
:104FA000106223F0FF5323F4C0131361BB695A014D
:104FB000FB69134403F510631A69BB685969BB6840
:104FC0009B680B44591EBB689B68B1FBF3F3D90483
:104FD0009D4B0B40B9694801F969014401F5106125
:104FE00013430B61BB695A01FB69134403F510635A
:104FF0001A69BB685B69C3F31203B9694801F969AF
:10500000014401F5106113430B61BB68DB78012B90
:105010001FD1BB695A01FB69134403F510631B6977
:10502000BA695101FA690A4402F5106223F0C043DB
:105030001361BB695A01FB69134403F510631B69D3
:10504000BA695101FA690A4402F5106243F000534B
:105050001361FB79012B4BD1BB681B69002B09D075
:10506000BB695A01FB69134403F510631A46BB6818
:105070001B695361BB68DB78012B28D1FB6903F501
:1050800000639B6803F48073002B10D1BB695A0145
:10509000FB69134403F510631B68BA695101FA698F
:1050A0000A4402F5106243F0005313600FE0BB693D
:1050B0005A01FB69134403F510631B68BA69510177
:1050C000FA690A4402F5106243F080531360BB6929
:1050D0005A01FB69134403F510631B68BA69510157
:1050E000FA690A4402F5106243F0044313602FE1A9
:1050F000BB695A01FB69134403F510631B68BA6965
:105100005101FA690A4402F5106243F00443136046
:10511000BB68DB78012B15D0BB685B69002B00F006
:105120001781FB6903F500635A6BBB681B7803F0BA
:105130000F03012101FA03F3F96901F5006113433B
:105140004B6305E1FB6903F500639B6803F480731F
:10515000002B10D1BB695A01FB69134403F510639E
:105160001B68BA695101FA690A4402F5106243F0FA
:10517000005313600FE0BB695A01FB69134403F548
:1051800010631B68BA695101FA690A4402F510629A
:1051900043F080531360BB68D968BB681A78BB685A
:1051A0005B6998B2FB7900930346F86800F02BFA2C
:1051B000CEE0BB695A01FB69134403F530631B69F8
:1051C000BA695101FA690A4402F53062DB0CDB046A
:1051D0001361BB695A01FB69134403F530631B6912
:1051E000BA695101FA690A4402F5306223F0FF53AB
:1051F00023F4C0131361BB685B69002B26D1BB6924
:105200005A01FB69134403F530631A69BB689B6854
:10521000C3F31203B9694801F969014401F530612A
:1052200013430B61BB695A01FB69134403F53063F7
:105230001B69BA695101FA690A4402F5306243F404
:105240000023136136E000BF0000F81FBB685A69F5
:10525000BB689B6813445A1EBB689B68B2FBF3F3A0
:10526000FB82BB695A01FB69134403F530631A6979
:10527000FB8AD904394B0B40B9694801F9690144EB
:1052800001F5306113430B61BB695A01FB6913449B
:1052900003F530631A69BB689B68F98A01FB03F365
:1052A000C3F31203B9694801F969014401F530619A
:1052B00013430B61FB79012B0DD1BB68DB68002B1D
:1052C00009D0BB68D968BB695A01FB69134403F56F
:1052D00030630A465A61BB68DB78012B28D1FB6931
:1052E00003F500639B6803F48073002B10D1BB6946
:1052F0005A01FB69134403F530631B68BA69510115
:10530000FA690A4402F5306243F0005313600FE07B
:10531000BB695A01FB69134403F530631B68BA6922
:105320005101FA690A4402F5306243F08053136078
:10533000BB695A01FB69134403F530631B68BA6902
:105340005101FA690A4402F5306243F004431360E4
:10535000002318462037BD4680BD00BF0000F81F5F
:1053600080B487B000AFF860B9601346FB71FB688A
:105370007B61BB681B783B61BB685B78012B40F0AD
:10538000CD80BB685B69002B32D13B695A017B69D8
:10539000134403F510631B693A6951017A690A44A1
:1053A00002F5106223F0FF5323F4C01313613B692D
:1053B0005A017B69134403F510631B693A69510173
:1053C0007A690A4402F5106243F4002313613B69D1
:1053D0005A017B69134403F510631B693A69510153
:1053E0007A690A4402F51062DB0CDB0413614EE0BB
:1053F0003B695A017B69134403F510631B693A69E1
:1054000051017A690A4402F51062DB0CDB04136176
:105410003B695A017B69134403F510631B693A69C0
:1054200051017A690A4402F5106223F0FF5323F414
:10543000C0131361BB685A69BB689B689A4203D961
:10544000BB689A68BB685A613B695A017B6913441F
:1054500003F510631B693A6951017A690A4402F540
:10546000106243F4002313613B695A017B691344C2
:1054700003F510631A69BB685B69C3F312033969EA
:1054800048017969014401F5106113430B61FB790F
:10549000012B1ED1BB681B69002B09D03B695A0147
:1054A0007B69134403F510631A46BB681B6953619B
:1054B0003B695A017B69134403F510631B683A6921
:1054C00051017A690A4402F5106243F00443136003
:1054D00092E03B695A017B69134403F510631B6832
:1054E0003A6951017A690A4402F5106243F00443B3
:1054F0001360BB685B69002B7ED07B6903F500639A
:105500005A6BBB681B7803F00F03012101FA03F308
:10551000796901F5006113434B636DE03B695A0102
:105520007B69134403F530631B693A6951017A6959
:105530000A4402F53062DB0CDB0413613B695A015B
:105540007B69134403F530631B693A6951017A6939
:105550000A4402F5306223F0FF5323F4C0131361B1
:10556000BB685B69002B03D0BB689A68BB685A6153
:105570003B695A017B69134403F530631B693A693F
:1055800051017A690A4402F5306243F40023136141
:105590003B695A017B69134403F530631A69BB68A0
:1055A0009B68C3F31203396948017969014401F525
:1055B000306113430B61FB79012B0DD1BB68DB68B4
:1055C000002B09D0BB68D9683B695A017B69134439
:1055D00003F530630A465A613B695A017B691344FB
:1055E00003F530631B683A6951017A690A4402F590
:1055F000306243F004431360002318461C37BD4655
:105600005DF8047B704780B489B000AFF860B96082
:1056100011461A460B46FB711346BB80FB687B6143
:10562000BB68FB6197F82830002B1AD1BB88033385
:105630009B083B610023BB610FE0FB791A037B6988
:10564000134403F580531A46FB691B681360FB691A
:105650000433FB61BB690133BB61BA693B699A42A0
:10566000EBD3002318462437BD465DF8047B704712
:1056700080B489B000AFF860B9601346FB80FB6866
:105680007B61BB68FB61FB8803339B083B610023A4
:10569000BB610BE07B6903F580531A68FB691A60F4
:1056A000FB690433FB61BB690133BB61BA693B69C8
:1056B0009A42EFD3FB6918462437BD465DF8047B58
:1056C000704780B485B000AF786039607B68FB605C
:1056D0003B681B78BB603B685B78012B2CD1BB68B7
:1056E0005A01FB68134403F510631B68002B12DB9F
:1056F000BB68002B0FD0BB685A01FB68134403F54D
:1057000010631B68BA685101FA680A4402F5106216
:1057100023F080431360BB685A01FB68134403F510
:1057200010631B68BA685101FA680A4402F51062F6
:1057300043F4001313602BE0BB685A01FB68134469
:1057400003F530631B68002B12DBBB68002B0FD006
:10575000BB685A01FB68134403F530631B68BA68E1
:105760005101FA680A4402F5306223F08043136065
:10577000BB685A01FB68134403F530631B68BA68C1
:105780005101FA680A4402F5306243F400131360D1
:10579000002318461437BD465DF8047B704780B47B
:1057A00085B000AF786039607B68FB603B681B7830
:1057B000BB603B685B78012B28D1BB685A01FB6852
:1057C000134403F510631B68BA685101FA680A4470
:1057D00002F5106223F4001313603B68DB78032B9F
:1057E00003D03B68DB78022B38D1BB685A01FB68D9
:1057F000134403F510631B68BA685101FA680A4440
:1058000002F5106243F08053136027E0BB685A0131
:10581000FB68134403F530631B68BA685101FA68EA
:105820000A4402F5306223F4001313603B68DB780E
:10583000032B03D03B68DB78022B0FD1BB685A01E6
:10584000FB68134403F530631B68BA685101FA68BA
:105850000A4402F5306243F0805313600023184677
:105860001437BD465DF8047B704780B485B000AF47
:1058700078600B46FB707B68FB60FB6803F5006398
:105880001B68FA6802F5006223F4FE631360FB688C
:1058900003F500631A68FB781B0103F4FE63F968E3
:1058A00001F5006113430B60002318461437BD4611
:1058B0005DF8047B704780B584B000AF78607B688A
:1058C000FB60FB6803F500635B68FA6802F5006241
:1058D00023F0020353600320FAF74CFE002318461E
:1058E0001037BD4680BD80B584B000AF78607B685E
:1058F000FB60FB6803F500635B68FA6802F5006211
:1059000043F0020353600320FAF734FE00231846E5
:105910001037BD4680BD80B485B000AF78607B682D
:105920005B69FB607B689B69FA681340FB60FB68FE
:1059300018461437BD465DF8047B704780B485B0C7
:1059400000AF78607B68FB60FB6803F500639B69D0
:10595000BB60FB6803F50063DB69BA681340BB609A
:10596000BB681B0C18461437BD465DF8047B7047B6
:1059700080B485B000AF78607B68FB60FB6803F59E
:1059800000639B69BB60FB6803F50063DB69BA6871
:105990001340BB60BB689BB218461437BD465DF828
:1059A000047B704780B485B000AF78600B46FB7015
:1059B0007B68FB60FB785A01FB68134403F5306396
:1059C0009B68BB60FB6803F500635B69BA681340C2
:1059D000BB60BB6818461437BD465DF8047B704752
:1059E00080B487B000AF78600B46FB707B687B614A
:1059F0007B6903F500631B693B617B6903F5006309
:105A00005B6BFB60FB7803F00F03FA6822FA03F389
:105A1000DB01DBB23A6913433B61FB785A017B69D6
:105A2000134403F510639B683A691340BB60BB687D
:105A300018461C37BD465DF8047B704780B483B0C0
:105A400000AF78607B685B6903F0010318460C3790
:105A5000BD465DF8047B704780B485B000AF7860C8
:105A60007B68FB60FB6803F510631B68FA6802F54E
:105A7000106223F4FF6323F007031360FB6803F550
:105A800000639B6803F00603042B09D1FB6803F550
:105A900010631B68FA6802F5106243F00303136099
:105AA000FB6803F500635B68FA6802F5006243F483
:105AB00080735360002318461437BD465DF8047B9D
:105AC0007047000080B487B000AFF8600B467A6082
:105AD000FB72FB687B61FB683C3304331B683B61F2
