:020000040800F2
:1000000000000220417F0008315B0008355B0008DA
:10001000395B00083D5B0008415B00080000000000
:10002000000000000000000000000000455B000828
:10003000495B0008000000004D5B0008515B0008B0
:10004000917F0008917F0008917F0008917F000850
:10005000917F0008917F0008917F0008917F000840
:10006000917F0008917F0008917F0008917F000830
:10007000917F0008917F0008917F0008917F000820
:10008000917F0008917F0008917F0008917F000810
:10009000917F0008917F0008917F0008917F000800
:1000A000917F0008917F0008917F0008917F0008F0
:1000B000917F0008917F0008917F0008917F0008E0
:1000C000917F0008917F0008917F0008917F0008D0
:1000D000917F0008917F0008917F0008917F0008C0
:1000E000917F0008917F0008917F0008917F0008B0
:1000F000917F0008917F0008917F0008917F0008A0
:10010000917F0008917F0008917F0008917F00088F
:10011000917F0008917F0008917F0008917F00087F
:10012000917F0008917F0008917F0008917F00086F
:10013000917F00080000000000000000917F00088F
:10014000917F0008917F0008917F0008555B0008AF
:10015000917F0008917F0008917F0008917F00083F
:10016000917F0008917F0008917F0008917F00082F
:10017000917F0008917F0008917F00080000000037
:1001800000000000917F0008000000000000000057
:10019000917F00080000000000000000917F00082F
:1001A000000000000000000000000000917F000837
:1001B000917F0008917F0008917F0008917F0008DF
:0401C000917F000823
:1001D00081F0004102E000BF83F0004330B54FEAF8
:1001E00041044FEA430594EA050F08BF90EA020F65
:1001F0001FBF54EA000C55EA020C7FEA645C7FEAF8
:10020000655C00F0E2804FEA5454D4EB5555B8BF1A
:100210006D420CDD2C4480EA020281EA030382EA8B
:10022000000083EA010180EA020281EA0303362D1D
:1002300088BF30BD11F0004F4FEA01314FF4801CF0
:100240004CEA113102D0404261EB410113F0004F02
:100250004FEA03334CEA133302D0524263EB4303B9
:1002600094EA050F00F0A780A4F10104D5F1200E57
:100270000DDB02FA0EFC22FA05F2801841F10001B2
:1002800003FA0EF2801843FA05F359410EE0A5F186
:1002900020050EF1200E012A03FA0EFC28BF4CF0B7
:1002A000020C43FA05F3C01851EBE37101F000456D
:1002B00007D54FF0000EDCF1000C7EEB00006EEB7A
:1002C0000101B1F5801F1BD3B1F5001F0CD3490804
:1002D0005FEA30004FEA3C0C04F101044FEA44525B
:1002E00012F5800F80F09A80BCF1004F08BF5FEAE2
:1002F000500C50F1000041EB045141EA050130BDC2
:100300005FEA4C0C404141EB0101013C28BFB1F5D3
:10031000801FE9D291F0000F04BF01460020B1FA1E
:1003200081F308BF2033A3F10B03B3F120020CDAF1
:100330000C3208DD02F1140CC2F10C0201FA0CF0CF
:1003400021FA02F10CE002F11402D8BFC2F1200C34
:1003500001FA02F120FA0CFCDCBF41EA0C019040EA
:10036000E41AA2BF01EB0451294330BD6FEA040433
:100370001F3C1CDA0C340EDC04F11404C4F120021E
:1003800020FA04F001FA02F340EA030021FA04F330
:1003900045EA030130BDC4F10C04C4F1200220FA87
:1003A00002F001FA04F340EA0300294630BD21FAC5
:1003B00004F0294630BD94F0000F83F4801306BF8B
:1003C00081F480110134013D4EE77FEA645C18BF7F
:1003D0007FEA655C29D094EA050F08BF90EA020F16
:1003E00005D054EA000C04BF1946104630BD91EA0E
:1003F000030F1EBF0021002030BD5FEA545C05D111
:100400004000494128BF41F0004130BD14F580044F
:100410003CBF01F5801130BD01F0004545F0FE41C3
:1004200041F470014FF0000030BD7FEA645C1ABFF8
:10043000194610467FEA655C1CBF0B46024650EA2F
:10044000013406BF52EA033591EA030F41F400215B
:1004500030BD00BF90F0000F04BF0021704730B5E1
:100460004FF4806404F132044FF000054FF00001B6
:1004700050E700BF90F0000F04BF0021704730B577
:100480004FF4806404F1320410F0004548BF40424C
:100490004FF000013EE700BF42004FEAE2014FEAA1
:1004A00031014FEA02701FBF12F07F4393F07F4F7C
:1004B00081F06051704732F07F4208BF704793F07F
:1004C0007F4F04BF41F40021704730B54FF4607492
:1004D00001F0004521F000411CE700BF50EA010295
:1004E00008BF704730B54FF000050AE050EA01023E
:1004F00008BF704730B511F0004502D5404261EBAE
:1005000041014FF4806404F132045FEA915C3FF4EE
:10051000D8AE4FF003025FEADC0C18BF03325FEA8B
:10052000DC0C18BF033202EBDC02C2F1200300FA3C
:1005300003FC20FA02F001FA03FE40EA0E0021FA61
:1005400002F11444BDE600BF4FEA4102B2F1E043BC
:1005500024BFB3F5001CDCF1FE5C0DD901F0004CAA
:100560004FEAC0024CEA5070B2F1004F40EB8300FA
:1005700008BF20F00100704711F0804F21D113F126
:100580003872BCBF01F00040704741F480114FEA5F
:100590005252C2F11802C2F1200C10FA0CF320FAE8
:1005A00002F018BF40F001004FEAC1234FEAD32305
:1005B00003FA0CFC40EA0C0023FA02F34FEA43036F
:1005C000CCE77FEA625307D150EA01331EBF4FF0F8
:1005D000FE4040F44000704701F0004040F0FE4013
:1005E00040F40000704700BF53B94AB9002908BF62
:1005F00000281CBF4FF0FF314FF0FF3000F0E2B891
:10060000ADF1080C6DE904CE07F0E0FCDDF804E084
:10061000DDE9022304B0704700F1340191E83800AD
:100620009C46A6464CF8045D90E8FF0FE54600BDE9
:1006300090EC210B704700BF80EC210B704700BF8E
:1006400090EC200B704700BF80EC200B704700BF80
:10065000D0EC200B704700BFC0EC200B704700BFF0
:10066000F0EC0201F0EC0211F0EC0221F0EC0231AE
:10067000F0EC0241F0EC0251F0EC0261F0EC02719E
:10068000F0EC0281F0EC0291F0EC02A1F0EC02B18E
:10069000F0EC02C1F0EC02D1F0EC02E1F0EC02F17E
:1006A000704700BFE0EC0201E0EC0211E0EC022137
:1006B000E0EC0231E0EC0241E0EC0251E0EC0261DE
:1006C000E0EC0271E0EC0281E0EC0291E0EC02A1CE
:1006D000E0EC02B1E0EC02C1E0EC02D1E0EC02E1BE
:1006E000E0EC02F1704700BFB0FC0181B0FC019169
:1006F000B0FC01A1B0FC01B1704700BFA0FC0181BA
:10070000A0FC0191A0FC01A1A0FC01B1704700BFB9
:10071000EC4600B52DE900502DE9FF1F4FF0000316
:100720002DE90C0001A907F0DEFEDDF840E012B073
:10073000704700BFEC4600B52DE900502DE9FF1FC2
:100740004FF000032DE90C0001A907F003FFDDF8CD
:1007500040E012B0704700BFEC4600B52DE90050F4
:100760002DE9FF1F4FF000032DE90C0001A907F050
:1007700011FFDDF840E012B0704700BFEC4600B555
:100780002DE900502DE9FF1F4FF000032DE90C006B
:1007900001AB07F0D5FEDDF840E012B0704700BFB6
:1007A000EC4600B52DE900502DE9FF1F4FF0000386
:1007B0002DE90C0001AA07F03EFFDDF840E012B081
:1007C000704700BF704700BF034613F8012B002A93
:1007D000FBD1181A0138704700000000000000002B
:1007E00001F0FF01102A2BDB10F0070F08D010F8E2
:1007F000013B013A8B422DD010F0070F42B3F6D1E6
:10080000F0B441EA012141EA014122F007047FF0FE
:1008100000070023F0E80256083C85EA010586EA55
:10082000010685FA47F5A3FA87F586FA47F6A5FA91
:1008300087F68EB9EED1F0BC01F0FF0102F007029D
:1008400032B110F8013B013A83EA010313B1F8D148
:100850000020704701387047002D06BF3546033829
:10086000073815F0010F07D1013015F4807F02BF62
:10087000013015F4C03F0130F0BC0138704700BFB3
:1008800070B54FF0FF0C4CF4E06C1CEA11541DBF26
:100890001CEA135594EA0C0F95EA0C0F00F0DEF8F1
:1008A0002C4481EA030621EA4C5123EA4C5350EAD6
:1008B000013518BF52EA033541F4801143F4801327
:1008C00038D0A0FB02CE4FF00005E1FB02E506F0B8
:1008D0000042E0FB03E54FF00006E1FB03569CF00D
:1008E000000F18BF4EF0010EA4F1FF04B6F5007F13
:1008F00064F5407404D25FEA4E0E6D4146EB060685
:1009000042EAC62141EA55514FEAC52040EA5E500D
:100910004FEACE2EB4F1FD0C88BFBCF5E06F1ED8B7
:10092000BEF1004F08BF5FEA500E50F1000041EBEE
:10093000045170BD06F0004646EA010140EA02009B
:1009400081EA0301B4EB5C04C2BFD4EB0C0541EABD
:10095000045170BD41F480114FF0000E013C00F3D2
:10096000AB8014F1360FDEBF002001F0004170BDF6
:10097000C4F10004203C35DA0C341BDC04F114040F
:10098000C4F1200500FA05F320FA04F001FA05F29B
:1009900040EA020001F0004221F0004110EBD37068
:1009A00021FA04F642EB06015EEA430E08BF20EA94
:1009B000D37070BDC4F10C04C4F1200500FA04F337
:1009C00020FA05F001FA04F240EA020001F00041C9
:1009D00010EBD37041F100015EEA430E08BF20EA3C
:1009E000D37070BDC4F1200500FA05F24EEA020E84
:1009F00020FA04F301FA05F243EA020321FA04F0B3
:100A000001F0004121FA04F220EA020000EBD37069
:100A10005EEA430E08BF20EAD37070BD94F0000F69
:100A20000FD101F00046400041EB010111F4801F9D
:100A300008BF013CF7D041EA060195F0000F18BF4E
:100A4000704703F00046520043EB030313F4801F8A
:100A500008BF013DF7D043EA0603704794EA0C0F44
:100A60000CEA135518BF95EA0C0F0CD050EA41065A
:100A700018BF52EA4306D1D181EA030101F00041D7
:100A80004FF0000070BD50EA410606BF10461946FF
:100A900052EA430619D094EA0C0F02D150EA01360B
:100AA00013D195EA0C0F05D152EA03361CBF10464C
:100AB00019460AD181EA030101F0004141F0FE41EB
:100AC00041F470014FF0000070BD41F0FE4141F46F
:100AD000780170BD70B54FF0FF0C4CF4E06C1CEA6F
:100AE00011541DBF1CEA135594EA0C0F95EA0C0F24
:100AF00000F0A7F8A4EB050481EA030E52EA0335DF
:100B00004FEA013100F088804FEA03334FF08055FF
:100B100045EA131343EA12634FEA022245EA11152C
:100B200045EA10654FEA00260EF000419D4208BFDD
:100B3000964244F1FD0404F5407402D25B084FEA8A
:100B40003202B61A65EB03055B084FEA32024FF436
:100B500080104FF4002CB6EB020E75EB030E22BF93
:100B6000B61A754640EA0C005B084FEA3202B6EB53
:100B7000020E75EB030E22BFB61A754640EA5C0002
:100B80005B084FEA3202B6EB020E75EB030E22BF92
:100B9000B61A754640EA9C005B084FEA3202B6EB93
:100BA000020E75EB030E22BFB61A754640EADC0052
:100BB00055EA060E18D04FEA051545EA16754FEAB4
:100BC00006164FEAC30343EA52734FEAC2025FEAD2
:100BD0001C1CC0D111F4801F0BD141EA00014FF061
:100BE00000004FF0004CB6E711F4801F04BF014332
:100BF0000020B4F1FD0C88BFBCF5E06F3FF6AFAE4E
:100C0000B5EB030C04BFB6EB020C5FEA500C50F1DD
:100C1000000041EB045170BD0EF0004E4EEA113160
:100C200014EB5C04C2BFD4EB0C0541EA045170BD67
:100C300041F480114FF0000E013C90E645EA060EAB
:100C40008DE60CEA135594EA0C0F08BF95EA0C0FD9
:100C50003FF43BAF94EA0C0F0AD150EA01347FF421
:100C600034AF95EA0C0F7FF425AF104619462CE7F8
:100C700095EA0C0F06D152EA03353FF4FDAE10465B
:100C8000194622E750EA410618BF52EA43067FF4AC
:100C9000C5AE50EA41047FF40DAF52EA43057FF43C
:100CA000EBAE12E74FF0FF3C06E000BF4FF0010C47
:100CB00002E000BF4FF0010C4DF804CD4FEA410CAB
:100CC0007FEA6C5C4FEA430C18BF7FEA6C5C1BD078
:100CD00001B050EA410C0CBF52EA430C91EA030FF9
:100CE00002BF90EA020F0020704710F1000F91EA56
:100CF000030F58BF994208BF90422CBFD8176FEA24
:100D0000E37040F0010070474FEA410C7FEA6C5CF1
:100D100002D150EA013C07D14FEA430C7FEA6C5CF8
:100D2000D6D152EA033CD3D05DF8040B704700BF24
:100D30008446104662468C461946634600E000BF72
:100D400001B5FFF7B7FF002848BF10F1000F01BD44
:100D50004DF808EDFFF7F4FF0CBF012000205DF80F
:100D600008FB00BF4DF808EDFFF7EAFF34BF012094
:100D700000205DF808FB00BF4DF808EDFFF7E0FF2D
:100D800094BF012000205DF808FB00BF4DF808ED7E
:100D9000FFF7CEFF94BF012000205DF808FB00BFE5
:100DA0004DF808EDFFF7C4FF34BF012000205DF8C7
:100DB00008FB00BF4FEA410C7FEA6C5C02D150EAAD
:100DC000013C0AD14FEA430C7FEA6C5C02D152EA43
:100DD000033C02D14FF0000070474FF00100704714
:100DE0004FEA410212F5001215D211D56FF4787353
:100DF000B3EB625212D94FEAC12343F0004343EAF6
:100E0000505311F0004F23FA02F018BF40427047D0
:100E10004FF00000704750EA013005D111F000405A
:100E200008BF6FF0004070474FF00000704700BFF0
:100E30004A0011D212F5001211D20DD56FF4787359
:100E4000B3EB62520ED44FEAC12343F0004343EAAE
:100E5000505323FA02F070474FF00000704750EAF9
:100E6000013002D14FF0FF3070474FF00000704763
:100E700010B5054C227832B9044B13B10448AFF3D6
:100E800000800123237010BD6003002000000000DB
:100E900038CE000808B5034B1BB103490348AFF334
:100EA000008008BD000000006403002038CE000868
:100EB00038B50E4A0E4B12781B6805464FF47A700F
:100EC000B0FBF2F0B3FBF0F000F012FA08B90F2D0E
:100ED00001D9012038BD0446024629464FF0FF30B3
:100EE00000F0C2F9034B20461D6038BD0000002011
:100EF000180100200400002008B50B4B1A6842F4CA
:100F000000721A601A6842F480621A601A6842F429
:100F100080721A60032000F093F90020FFF7C8FFE9
:100F200004F0EAFD002008BD003C0240034A044BE7
:100F300011681B780B441360704700BF7C030020CE
:100F400000000020014B1868704700BF7C030020A0
:100F500038B50446FFF7F6FF631C054602D0044B84
:100F60001B781C44FFF7EEFF431BA342FAD338BDA6
:100F700000000020002800F0A080F8B5056C0446B1
:100F80003DB1236CDB060CD5002384F83C300120F6
:100F9000F8BD03F06BFF6564236C84F83C50DB06FE
:100FA000F2D4226C48492368484D22F4885222F03A
:100FB000020242F0020222644A6822F440324A608D
:100FC0004A68606802434A6058682169A768E66811
:100FD00020F4807058605A6842EA01225A605868CA
:100FE00020F0407058605968A06A39435960996888
:100FF00021F4006199609A68A84242EA06029A6068
:1010000052D09968E56A21F0706199609A6810433E
:101010009860996821F0405199609A682A439A60D3
:101020009A6822F002029A609A68217E42EA41029E
:101030009A6094F82020002A41D05A68616A42F4EC
:1010400000625A605A6822F460425A605A68013954
:1010500042EA41325A60DA6AE069656922F4700254
:10106000DA62D96A013841EA0051D962996821F4FB
:1010700000719960996894F8302041EA42219960A2
:10108000996821F4806199609A68002042EA85227B
:101090009A606064236C23F0030343F0010323642C
:1010A000002384F83C30F8BD9A6822F070629A60A0
:1010B0009A6822F040529A60B2E7012070475A685D
:1010C00022F400625A60C6E7002301400100000FCD
:1010D000F0B490F83C3082B00022012B019200F075
:1010E0009480012380F83C300D688A680368092DDC
:1010F000AFB229D81C6905EB45064FF0070C0CFA76
:1011000006FC24EA0C041C611C6902FA06F626435C
:101110001E614E68062E06EB86022AD8596B053AE8
:101120001F24944021EA04015963596B07FA02F223
:101130000A435A633D4A93422DD0002380F83C3045
:10114000184602B0F0BC704707EB4706DC681E3E4D
:101150004FF0070C0CFA06FC24EA0C04DC60DC6897
:1011600002FA06F62643DE604E68062E06EB86027D
:10117000D4D90C2E31D8A2F123041F211A6BA1401F
:1011800022EA01021A63196B07FA04F20A431A638E
:10119000264A9342D1D1122D2DD0254B9D4238D1D4
:1011A000244A254B5168254C21F480015160516837
:1011B00041F4000151601B68A4FB03239B0C03EB6B
:1011C00083035B000193019B002BB6D0019B013B85
:1011D0000193019B002BF9D1AFE7A2F141011F243C
:1011E000DA6A8C4022EA0402DA62DC6A07FA01F267
:1011F0002243DA629EE70F4B5A6822F400025A60DB
:101200005A6842F480025A6097E7022002B0F0BCAC
:101210007047112D91D1074B5A6822F480025A6011
:101220005A6842F400025A6087E700BF002001407C
:1012300012000010002301401801002083DE1B4330
:101240000849CA6810B400024FF6FF04224000F4B7
:10125000E063134343F0BF6343F400335DF8044B92
:10126000CB60704700ED00E0184B30B4DC68C4F38D
:101270000224C4F10705042D04F1040328BF04254A
:10128000062B19D9033C4FF0FF33A34022EA030297
:101290004FF0FF33AB4021EA030101FA04F313439B
:1012A0001B010028DBB20ADB00F1604000F5614061
:1012B00080F8003330BC704700221446E8E7044A47
:1012C00000F00F000244137630BC704700ED00E0E0
:1012D000FCEC00E0002807DB00F01F01034A400996
:1012E00001238B4042F82030704700BF00E100E04E
:1012F0000138B0F1807F0ED2084B10B4084C586012
:10130000F02084F823000022072110469A605DF83F
:10131000044B196070470120704700BF10E000E0E7
:1013200000ED00E02DE9F04F00230E68DFF8208289
:10133000DFF820E283B003E00133102B00F09C8043
:1013400001229A4032EA060402EA060CF4D14D6802
:1013500025F0100ABAF1020F00F09180D0F800B029
:101360004FEA4309032404FA09F405F003072BEAC2
:10137000040B07FA09F70AF1FF3A47EA0B07BAF13B
:10138000010F6FEA0404076040F29F80C7688A6813
:101390003C4002FA09F22243EF00C260CCD50022A1
:1013A0000192D8F8442042F48042C8F84420D8F88A
:1013B000442023F0030404F1804402F4804204F545
:1013C0009C34019203F00307019AD4F80890BF00FF
:1013D0000F22BA4029EA020A574A90421FD002F56A
:1013E0008062904200F08480544A904200F08780EE
:1013F000534A904200F08A80524A904200F08D8019
:10140000514A904200F09080504A90420CBF4FF0F9
:1014100006094FF0070909FA07F74AEA070AC4F86C
:1014200008A0DEF800206FEA0C07EC0354BF3A4036
:101430004CEA0202CEF80020DEF80440AA0354BFB2
:101440003C404CEA0404CEF80440DEF80840EA02CE
:1014500054BF3C404CEA0404CEF80840DEF80C20AF
:10146000AC0203F1010354BF3A404CEA0202102BD4
:10147000CEF80C207FF464AF03B0BDE8F08F4FEAE4
:10148000D30900EB890903F00707D9F82040BF0012
:101490004FF00F0B0BFA07FB24EA0B0A0C69BC4058
:1014A00044EA0A04C9F82040D0F800A04FEA4309F2
:1014B000032404FA09F405F003072AEA040A07FAE8
:1014C00009F747EA0A07E4430760876804EA070A5E
:1014D000CF6807FA09F747EA0A078760D0F804A03F
:1014E000C5F300172AEA02029F40174347604DE701
:1014F0004FF0010909FA07F74AEA070A8FE74FF0A8
:10150000020909FA07F74AEA070A88E74FF00309D0
:1015100009FA07F74AEA070A81E74FF0040909FACE
:1015200007F74AEA070A7AE74FF0050909FA07F7C9
:101530004AEA070A73E700BF0000024000080240C1
:10154000000C02400010024000140240001802404B
:1015500000380240003C01400369194214BF0120D9
:101560000020704702B9090481617047002800F02B
:10157000AC80F8B590F83D30044603F0FF02002B34
:1015800000F08C802268242384F83D30136823F017
:101590000103136000F0EEFE65684D4B9D424CD890
:1015A0004C4B984278D922684B4B5168A3FB00639F
:1015B00021F03F0141EA93415160116A9B0C21F0F7
:1015C0003F0101330B431362D169431E6D0040F6A6
:1015D000FC70B3FBF5F3013321F44F41034221F0DA
:1015E000FF0160D104230B43D361D4E907351068B0
:1015F000216920F0C0002B43034313609068E56825
:10160000636920F4034020F0FF0029430143916007
:10161000D168A06921F0FF0103430B43D360116837
:10162000002341F0010120251160236484F83D501E
:10163000236384F83E301846F8BD284B98422BD9D6
:10164000226825495668264FA1FB003126F03F0647
:1016500046EA91464FF49673890C566003FB01F3FA
:10166000A7FB0313116AA6689B0921F03F01013310
:101670000B431362D16921F44F41013821F0FF017E
:10168000A6B905EB4505B0FBF5F00130C0F30B0042
:10169000C8B140F40043A6E70120F8BD80F83C2023
:1016A00003F0EEFD6EE7C3F30B039CE705EB850546
:1016B00005EB8505B0FBF5F00130C0F30B0010B170
:1016C00040F440438FE701238DE70120704700BFBE
:1016D000A08601007F841E0083DE1B43FF083D00BF
:1016E000D34D6210F0B58BB0002800F0868090F8E2
:1016F000BD330468054603F0FF02002B77D0204677
:10170000032385F8BD33E36B2E4613F4807308BFC3
:101710002B6102F079F856F810CB37460FCF6C46A4
:101720000FC40FCF0FC497E8030084E803002F1DF8
:1017300097E80E00604601F07DFF044630B10124B9
:101740000223204685F8BD330BB0F0BD0146286862
:1017500002F062F8686858B322464FF0010E214645
:10176000C2EBC20305EB830302F1010C83F83C20BA
:10177000A3F842205FFA8CF28242C3E9111183F888
:101780003DE083F83F101965EAD30022C4EBC4039F
:1017900005EB8303611C83F8FC41CCB28442C3E9AE
:1017A000812283F8FD2183F8FF21C3F81022EDD3B5
:1017B0000FCE6C460FC40FCE0FC496E8030084E82A
:1017C000030097E80E00286802F03EF8044600285F
:1017D000B5D16B6A85F838000122934285F8BD23A4
:1017E0000FD0286802F01AFC20460BB0F0BD80F83C
:1017F000BC2306F02BF9286882E7012420460BB0B1
:10180000F0BD284600F000FDEBE700BF10B590F8F2
:10181000BC33012B0446006816D0A36A0122934210
:1018200084F8BC2308D002F0EBFB206801F0E4FF51
:10183000002084F8BC0310BDA3699342F3D0836BEE
:1018400043F480338363EEE7022010BD2DE9F04FAF
:10185000066887B00446304602F020FC10B107B09D
:10186000BDE8F08F8346206802F0E6FB0028F6D042
:10187000206802F0E1FB10F0020F20681EBF4369F0
:1018800003F00203436102F0D7FB10F4002F20683D
:1018900040F0858102F0D0FB10F4802F206840F0EA
:1018A000ED8002F0C9FB002874DB206802F0C4FB65
:1018B000000564D4206802F0BFFB020114D5226841
:1018C000536903F00063536194F8F433002B40F044
:1018D000CE81012184F8F413536DC3F38303C4F85C
:1018E000F833204606F01EFA206802F0A5FBC30478
:1018F0007BD4206802F0A0FB10F4005F20685DD16B
:1019000002F09AFB10F0100F206812D0836923F0C8
:1019100010038361356AC5F34343022B05F00F07BB
:1019200000F05482062B00F0B881836943F0100365
:10193000836102F081FB070700F19081206802F0CB
:101940007BFBC60200F18081206802F075FB8502F6
:1019500000F17081206802F06FFB400000F16181AE
:10196000206802F069FB41077FF579AF23685D6865
:101970006A0700F14D825A682A435A606FE7D6F829
:101980000838D90700F140822068436903F40063F6
:10199000436190E7D6F8043823F00103C6F8043811
:1019A00094F8F433012B00F07181204606F0E6F83C
:1019B0002068436903F00043436177E702F072FB5C
:1019C000206802F04DF8E060256800F0CDFC227B35
:1019D0000146284601F098FE204606F0A1F820684E
:1019E000436903F4005343618AE7D6F8043820685A
:1019F00023F001031021C6F8043802F01FF86768CD
:101A000006F50065B7B106F510634FF67F319960B2
:101A10001A6822F400121A60C3F80812D3F80022E0
:101A20000BF1010B22F40012BB45C3F8002203F1B5
:101A30002003ECD1EB69226B43F00113EB61002A28
:101A400040F019816B6943F4005343F02B036B6141
:101A50002B6943F00B032B61D6F80038217C2068FA
:101A600023F4FE63C6F8003804F5717202F036FB09
:101A70002068436903F4805343613BE702F0E8FACE
:101A800081462068B9F1000F3FF40BAF06F51063F3
:101A9000CDE9023625464FF0000ACDF810B007E038
:101AA0005FEA59090AF1010A05F11C0500F03C81C1
:101AB00019F0010FF4D05FFA8AF7394602F0DAFA2A
:101AC000C207064600F1FC8020688046330704D533
:101AD000029B03EB4A1308229A60F10604D5029B8D
:101AE00003EB4A1310229A60720604D5029B03EBA3
:101AF0004A1340229A60B30704D5029B03EB4A13B2
:101B000002229A603606CBD5D5E914138B42C7D88A
:101B100008EB4A1B6A6CDBF81869CDF81480A1EB5E
:101B2000030C624528BF6246B6B20332B6EB920F91
:101B30000BF5106B1CD2A8E101B3D5E911319E421F
:101B400028BF1E4694F810C0CDF800C0B3B202F012
:101B5000BFF9DBF81820A96C6B6D3144334492B2A5
:101B60000336B2EB960FA9646B65C0F08A81296DCC
:101B70009942A1EB03063A464046DDD8D4F80080EE
:101B8000059B012003F500610AF00F02D3F83438F9
:101B900000FA02F223EA020340464B6380E702F0B8
:101BA0004FFA05462068002D3FF474AE06F5306309
:101BB000CDE9046B04F5017A0027994606E06D082B
:101BC00007F101070AF11C0A00F0B180EA07F6D517
:101BD000F9B2029102F044FA10F0010F02990646A0
:101BE00040F0A88000F0080B2068BBF1000F40F027
:101BF000D780F20603D509EB471310229A60B3068B
:101C000007D52169012900F0448109EB47132022FF
:101C10009A60B104D3D509EB47134FF400529A6090
:101C2000CDE7204605F0B6FF2068436903F0804306
:101C3000436196E62046002105F0A4FF2068436931
:101C400003F40013436186E62046002105F09EFF61
:101C50002068436903F48013436176E6204605F06B
:101C60005BFF2068436903F00803436167E6204691
:101C700005F06CFF38E6D5F8843043F00B03C5F867
:101C800084306B6C43F00B036B64E5E6002184F851
:101C9000F413204606F046F88AE6082204F571712E
:101CA0003046C7EBC70702F029F904EB8702C5F3FA
:101CB0000A13D2F8141220680B44C2F8143234E626
:101CC000039B2069D3F834184FF0010C0AF00F027F
:101CD0000CFA02F221EA0201029AC3F8341802EB6C
:101CE0004A126045C2F808C003D1D5E91123134454
:101CF000AB643946204605F005FF2169D4F8008021
:101D0000012940467FF4E2AEBAF1000F7FF4DEAE67
:101D1000236D002B7FF4DAAE04F5717202F0DEF968
:101D2000D4F800804046D1E6DDE9036BB9E5DDE992
:101D3000046BAFE52068D4F810C009EB471300F539
:101D40003068012208EB47189A60D0F840E0D8F8D4
:101D500008200293BCF1010F039206F0080B77D024
:101D60006C4A964570D1039B1A0468D54FF4004223
:101D7000C8F80820BBF1000F3FF43BAFD0F840B0EB
:101D8000D8F80810634A934547D0204605F0AAFECC
:101D9000614B9B454AD82068029B08229A6028E73D
:101DA0002269D0F840B000F5306808EB471809EB1D
:101DB0004713012AD8F808100293E3D1564A9345F5
:101DC0002BD8204605F08EFE2068E5E747F6F07335
:101DD0001D423FF4AAADC7EBC70704EB8707C5F365
:101DE0000A12D7F80812304602F088F8D7F808220D
:101DF000D7F814322068C5F30A152A442B44C7F8D3
:101E00000822C7F8143290E5204605F09FFEBBE596
:101E1000204605F0C3FE2368ADE5090403D54FF461
:101E20000042C8F80820204605F05CFE21692068C1
:101E30000129B1D104F5717202F050F9ABE79806AF
:101E400044BF2023C8F80830204605F051FECBE6F9
:101E500013461B0723D5304B9E4505D9110444BFBB
:101E60004FF40043C8F80830204605F03BFE2068D8
:101E700004F57172012102F031F90823C8F8083025
:101E8000B2E6D4F80080296D40468B42FFF408AEDC
:101E900076E604F5717202F021F92068B5E6039B3D
:101EA0009A060BD52022C8F80820BBF1000F3FF49A
:101EB000A0AED0F840B0D8F808107FE713F0280F94
:101EC000F3D1154A964506D91B0404D54FF40042B8
:101ED000C8F80820E9E7DAE90002D8F81030C3F3BF
:101EE0001203C31A0244CAF81030CAF8042020466C
:101EF00005F0FEFD002F7FF477AED4F81032002BF2
:101F00007FF472AE206804F57172012102F0E6F8E8
:101F10006AE600BF0A31544F0A30544F90F8BC2390
:101F2000012A0DD010B50122044680F8381080F83F
:101F3000BC23006802F054F8002084F8BC0310BDF4
:101F400002207047F8B501F00F04054601F00F00BC
:101F5000C4EBC404C0EBC00609064FEA840405EBD9
:101F600086061DD404F5FE740027291986F8FD7134
:101F70004C7808708A60CB7004B1C880022B04BF13
:101F800000230B7195F8BC33012B0FD00123286877
:101F900085F8BC3301F070FD002085F8BC03F8BD66
:101FA0003C340127291986F83D70E1E70220F8BD8D
:101FB00038B501F00F0201F00F030446C3EBC30371
:101FC000C2EBC20009064FEA830304EB800014D47D
:101FD00003F5FE73E118002580F8FD510A7094F8AE
:101FE000BC33012B13D00123206884F8BC3301F0EB
:101FF00087FD002084F8BC0338BD3C33E11801257F
:1020000080F83D500A7094F8BC33012BEBD10220CC
:1020100038BD00BF38B501F00F05C5EBC50400EBB6
:1020200084040021C4F80822C4F8141284F8FD11B5
:10203000C4F8103284F8FC5103691C2101FB05012E
:10204000012B08BFC4F80C22006801F5FE71DAB25A
:102050001DB901F0A7FE002038BD01F087FD00206A
:1020600038BD00BF01F00F01C1EBC10100EB8101E0
:10207000D1F81402704700BF70B501F00F05C5EB31
:10208000C50400EB840401210026A26484F83D10FD
:10209000236584F83C50666503691C2101FB05013A
:1020A000012B08BFE26400683C31DAB21DB901F0CF
:1020B00079FE002070BD01F059FD002070BD00BF09
:1020C00038B5436801F00F059D4233D80B0604462E
:1020D0001CD4C1EBC10300EB83031C2000FB0141B6
:1020E000002201F5FE7183F8FD2101230D708B7034
:1020F00094F8BC239A421BD0206884F8BC3301F0CA
:102100000FFFCDB1002084F8BC0338BDC5EBC5037B
:102110001C2101FB050100EB830301223C3183F804
:102120003D2001230D708B7094F8BC239A42E3D1BB
:10213000022038BD012038BD217C206804F5717271
:1021400001F0CCFFDEE700BF38B5436801F00F02B5
:102150009A422FD80446C2EBC203C2EBC200090662
:102160004FEA830304EB800016D403F5FE73E118F5
:10217000002580F8FD5100250A708D7094F8BC335D
:10218000012B15D00123206884F8BC3301F0F6FE42
:1021900084F8BC53284638BD3C33E118012580F84B
:1021A0003D5000250A708D7094F8BC33012BE9D1A5
:1021B000022038BD012038BD30B405681204686AB9
:1021C00021B91043A862002030BC7047AB6A4C1E96
:1021D00000EB13400BD0002303F1400105EB81011C
:1021E00001334968DBB2A34200EB1140F4D3403421
:1021F00005EB840410436060002030BC704700BFD2
:1022000003680020596270470268002110B480F80A
:10221000F4139369012443F00063C0F8FC43936115
:10222000536D5DF8044B43F0805343F003030846BD
:1022300053657047002800F08680474A136803F012
:102240000F038B422DE9F0410D46044609D2CBB273
:102250001370136803F00F038B4202D00120BDE816
:10226000F0812368980714D5590704D53B498A683B
:1022700042F4E0528A601A0704D538498A6842F469
:1022800060428A603549A0688A6822F0F002024301
:102290008A60DF0721D56268012A56D0931E012B80
:1022A0002E4B1B684CD99907D8D52C4EB36823F018
:1022B00003031343B360FEF745FE41F28838074637
:1022C00004E0FEF73FFEC01B404543D8B368626898
:1022D00003F00C03B3EB820FF3D11F4A136803F032
:1022E0000F03AB4206D9EBB21370136803F00F0370
:1022F000AB42B3D123685A0706D51849E0688A680B
:1023000022F4E05202438A601B0707D5134A216971
:10231000936823F4604343EAC103936000F05EFADC
:102320000E4A0F4C92680F49C2F303120346A25C97
:102330000020D3400B60FEF7BBFD0020BDE8F0811C
:102340009801B2D48AE701207047044B1B689E03B2
:10235000ABD483E7032082E7003C02400038024010
:1023600020CF000818010020014B1868704700BFFB
:1023700018010020044B054A9B680549C3F38223DA
:102380000868D35CD84070470038024030CF00085E
:1023900018010020044B054A9B680549C3F34233EA
:1023A0000868D35CD84070470038024030CF00083E
:1023B000180100202DE9F043036813F0010683B0F3
:1023C00004460BD0B449866BD1F88C2022F0C06251
:1023D0003243B6FA86F6C1F88C2076099A070BD5F7
:1023E000AD49E06BD1F88C2022F0C05202430028A6
:1023F000C1F88C2008BF012613F0040512D0A649AD
:10240000256BD1F88C20B5F5801F22F4401242EAEA
:10241000050218BFB5FA85F5C1F88C2012BF6D0909
:10242000002501261F070FD59B48616BD0F88C2033
:1024300022F440020A43B1F5800FC0F88C2000F06E
:10244000F980002908BF0125980600F1AA80DF065F
:1024500004D5924B94F858201A602368180608D5C2
:102460008D49E06CD1F8942022F440020243C1F877
:102470009420590608D58849A06CD1F8942022F000
:1024800080620243C1F89420DA050CD58249606D60
:10249000D1F8942022F000620243B0F1006FC1F83D
:1024A000942008BF01259F0508D57B49606CD1F8B1
:1024B000942022F080520243C1F8942058050BD595
:1024C0007548216DD0F8942022F000520A43B1F1F2
:1024D000005FC0F894200BD0012E09D0B3F5006F37
:1024E00006D0012D00F0E280002003B0BDE8F083AB
:1024F0006B4B694F00221A60FEF724FD064604E08C
:10250000FEF720FD831B022B41D83B681901F7D44D
:102510002368DA073FD5A26B002A3CD15E49606888
:10252000D1F88420D1F8846002F4403206F070665D
:102530003243A6680243606942EA861242EA0072A8
:10254000C1F884205E0704D5226BB2F5801F00F02D
:102550008480180703D5626BB2F5800F7DD05905D2
:1025600004D5226DB2F1005F00F003811A0563D437
:102570004B4B494F01221A60FEF7E4FC06463B68CC
:102580001B01AED4FEF7DEFC801B0228F7D9032026
:1025900003B0BDE8F0839F07D4D5E26B002AD1D108
:1025A000BCE73D4B3F4F002201921A6C42F0805233
:1025B0001A641B6C03F080530193019B3B6843F446
:1025C00080733B60FEF7BEFC804605E0FEF7BAFC78
:1025D000A0EB08000228DAD83B68D905F6D52E4FC3
:1025E000236C3A6F12F4407203F4407111D08A42A6
:1025F0000FD03B6F2C4A23F4407301200021106060
:1026000011603B673B6FDA0700F1CD80236C03F468
:102610004071B1F5407F00F0A1801F498A6822F423
:10262000F8128A601C4A116FC3F30B030B43136744
:1026300023680CE7012607E7201D0FC81B0643EAA5
:10264000811361690343520843EA0173013A124955
:1026500043EA0243C1F884308AE70F496068D1F841
:102660008420D1F8846002F4403206F0E046324320
:10267000A6680243206942EA861242EA0062C1F873
:102680008420D1F88C00A26A20F01F00013A024396
:10269000C1F88C2063E700BF00380240E0114742D8
:1026A0006800474200700040400E4742494B4A4E86
:1026B00000221A60FEF746FC054605E0FEF742FCE4
:1026C000401B02283FF663AF33689F00F6D42268B0
:1026D000500779D5236B002B76D13F49A069D1F8FB
:1026E0008830E56903F440330343606A43EA8513A5
:1026F00043EA0063C1F88830D1F88C30E06A23F4F3
:10270000F853013843EA0023C1F88C30D20514D5C0
:10271000636DB3F1006F10D12F49A569D1F88830EE
:10272000D4E9070203F070632B43520843EA801395
:10273000013A43EA0243C1F88830264B264D012274
:102740001A60FEF7FFFB04462B689B003FF5CCAEFA
:10275000FEF7F8FB001B0228F6D918E71E4882682E
:1027600023F0704122F4F81221F440710A43826090
:1027700058E7194F6668D7F88400D7F88420E168D5
:10278000C0F3014C02F0E042A068324342EA8012FA
:102790000CF10106490842EA4662013942EA014267
:1027A000C7F88420E2E6FEF7CDFB41F28839804687
:1027B00006E0FEF7C7FBA0EB080048453FF6E7AE92
:1027C0003B6F9B07F5D521E711079FD5636B002B66
:1027D0009CD182E77000474200380240284908B582
:1027E0008B6803F00C03082B07D00C2B1DD0254A57
:1027F0002548042B08BF104608BD4A684B6813F4EF
:10280000800302F03F0230D149681F48C1F38811AC
:10281000A1FB0001FDF7E8FE194B5B68C3F3014320
:1028200001335B00B0FBF3F008BD4A684B6813F45A
:10283000800302F03F020ED149681348C1F38811AA
:10284000A1FB0001FDF7D0FE0D4B5B68C3F30273E3
:10285000B0FBF3F008BD4B680A48C3F38813A3FB31
:1028600000010023FDF7C0FEEEE74B680548C3F307
:102870008813A3FB00010023FDF7B6FECCE700BFE1
:102880000038024000127A000024F4002DE9F041E3
:102890000368DA0782B0044636D5AE498A6802F08A
:1028A0000C02042A00F0D1808A6802F00C02082A87
:1028B00000F0C780A7498A6802F00C020C2A00F0D9
:1028C00004816368B3F5803F00F00481B3F5A02F65
:1028D00000F08F819F4D2A6822F480322A602A6896
:1028E00022F480222A60002B40F0F980FEF72AFBB8
:1028F000064605E0FEF726FB801B642800F20D81EA
:102900002B689903F6D423689A072FD5914A9168CA
:1029100011F00C0F00F0A780916801F00C0108295C
:1029200000F09D808B498A6802F00C020C2A00F0AE
:102930002C81E368002B00F01781874B854E012224
:102940001A60FEF7FFFA054605E0FEF7FBFA401BAA
:10295000022800F2E28033689807F6D533682269CE
:1029600023F0F80343EAC203336023681A0715D53E
:102970006369002B00F08D80784B764E01221A603F
:10298000FEF7E0FA054605E0FEF7DCFA401B0228F8
:1029900000F2C380736F9B07F6D52368580730D5C4
:1029A0006C4A136C13F0805300F0838000256C4E4A
:1029B0003368D90540F1A180A368012B00F0B180F4
:1029C000052B00F02081634E326F22F00102326746
:1029D000326F22F004023267002B40F0A780FEF72E
:1029E000B1FA41F28838074605E0FEF7ABFAC01BA2
:1029F000404500F29280336F9807F6D4002D40F0E6
:102A00000C81A369CBB1534DAA6802F00C02082ACD
:102A100030D0022B534B4FF000021A6000F0BA8006
:102A2000FEF790FA2C46054604E0FEF78BFA401BB1
:102A3000022872D823689B01F7D4002002B0BDE8B9
:102A4000F0814A6857027FF535AF424A1268950314
:102A50007FF55AAF6268002A7FF456AF0AE05268E9
:102A600057023FF55FAF3B4A1268950706D5E2680B
:102A7000012A03D0012002B0BDE8F0813549206968
:102A80000A6822F0F80242EAC0020A601A0785D5F5
:102A90006EE7324A2F4E1360FEF754FA054604E003
:102AA000FEF750FA401B022837D8736F9F07F7D400
:102AB00073E70193136C43F080531364136C03F0BA
:102AC00080530193019B012571E74A6856027FF507
:102AD000F8AEBAE71F4A136843F480331360FEF779
:102AE00031FA1C4E054604E0FEF72CFA401B642820
:102AF00013D833689803F7D505E7336843F4807338
:102B00003360FEF71FFA07463368DA053FF554AF26
:102B1000FEF718FAC01B0228F6D9032002B0BDE860
:102B2000F0810C4A136F43F001031367FEF70AFAB2
:102B3000084F064641F2883804E0FEF703FA801B8E
:102B40004045EAD83B6F9B07F7D5002D3FF459AFBE
:102B500063E000BF0038024000004742800E474259
:102B600000700040600047422F4A304E1360FEF76D
:102B7000E9F9054604E0FEF7E5F9401B0228CCD848
:102B800033689907F7D42368F0E64A6856023FF5A0
:102B9000D0AE68E7FEF7D6F9064604E0FEF7D2F9B4
:102BA000801B0228B9D82B689901F7D4D4E90732E1
:102BB000666AE06A216B1343A26A43EA861343EA1A
:102BC0000063520843EA0173013A1949174E43EA78
:102BD000024301226B600A60FEF7B4F9044604E088
:102BE000FEF7B0F9001B022897D833689A01F7D591
:102BF00023E70E4B1A6842F480221A601A6842F4E6
:102C000080321A606BE7094B1A6F42F004021A67B0
:102C10001A6F42F001021A6788E7044A136C23F026
:102C200080531364EDE600BF0000474200380240C5
:102C300060004742002868D0F8B590F83D3004465F
:102C400003F0FF02002B5BD02268314DA669E068DB
:102C50006168022384F83D30AA4213683FD0B2F184
:102C6000804F28D0A5F57C45AA4224D005F5806583
:102C7000AA4220D005F58065AA421CD005F578450A
:102C8000AA422CD005F57055AA4218D005F58065EA
:102C9000AA4214D005F58065AA4210D0A5F5983552
:102CA000AA420CD005F58065AA4208D005F58065DA
:102CB000AA4208D103E0A56823F070032B432569DD
:102CC00023F440732B4323F0800333431360D0621B
:102CD00091620123536184F83D300020F8BDA7685C
:102CE000256923F070033B4323F440732B4323F007
:102CF000800333431360D062916263691363E8E732
:102D000080F83C2004F002FA9EE70120704700BFE3
:102D100000000140002868D0F8B590F83D30044626
:102D200003F0FF02002B5BD02268314DA669E068FA
:102D30006168022384F83D30AA4213683FD0B2F1A3
:102D4000804F28D0A5F57C45AA4224D005F58065A2
:102D5000AA4220D005F58065AA421CD005F5784529
:102D6000AA422CD005F57055AA4218D005F5806509
:102D7000AA4214D005F58065AA4210D0A5F5983571
:102D8000AA420CD005F58065AA4208D005F58065F9
:102D9000AA4208D103E0A56823F070032B432569FC
:102DA00023F440732B4323F0800333431360D0623A
:102DB00091620123536184F83D300020F8BDA7687B
:102DC000256923F070033B4323F440732B4323F026
:102DD000800333431360D062916263691363E8E751
:102DE00080F83C2004F00CF99EE70120704700BFFA
:102DF0000000014003680122186A01F01F0102FA75
:102E000001F120EA010010B418621A6A0C4C114357
:102E1000A34219620FD00B4A93420CD09A6802F079
:102E20000702062A03D01A6842F001021A60002045
:102E30005DF8044B70475A6C42F400425A64EDE767
:102E4000000001400004014090F83C30012B00F0EC
:102E5000CE80F0B40223012480F83C4080F83D305D
:102E60000C2A35D8DFE802F0073434346C343434BB
:102E7000983434343D000368D1F808C01D6A0F68E7
:102E8000754E25F001051D621A6A5D689C6922F085
:102E9000020224F07304B34242EA0C0244EA07043B
:102EA00000F0A78006F58066B34200F0A2804E686D
:102EB0005D609C615E631A629C690D6944F0080460
:102EC0009C61996921F0040199619A692A439A6188
:102ED0000023012280F83D2080F83C30F0BC1846E9
:102EE00070470368D1F808C01D6A0F685A4E25F470
:102EF00080551D621A6A5D68DC6922F4005224F470
:102F0000E644B34242EA0C3244EA072400F08E80E1
:102F100006F58066B34200F089804E685D60DC6132
:102F20001E641A62DC690D6944F40064DC61D969CD
:102F300021F48061D961DA6942EA0522DA61C7E7E2
:102F400003688F681D6A0E68DFF80CC125F0100554
:102F50001D621A6A5D689C6922F0200224F4E6442E
:102F6000634542EA071244EA06244FD03B4FBB4276
:102F70004CD04E685D609C619E631A629C690D69CD
:102F800044F400649C61996921F4806199619A69B3
:102F900042EA05229A619BE703688F681D6A0E6802
:102FA000DFF8B4C025F480751D621A6A5D68DC69BB
:102FB00022F4007224F07304634542EA072244EAD3
:102FC000060439D0254FBB4236D04E685D60DC61C7
:102FD000DE631A62DC690D6944F00804DC61D969BA
:102FE00021F00401D961DA692A43DA6170E702202D
:102FF0007047CE6822F008023243D1E9056725F414
:1030000040753E4322F00402354350E7CE6822F07B
:10301000800242EA0612D1E9056725F4406C46EACF
:10302000070522F040024CEA8505A2E74E6925F427
:10303000804545EA861570E7CE6822F4006242EAD0
:103040000622D1E9056725F4405C46EA070522F42B
:1030500080624CEA0515B8E7000001400004014019
:1030600090F83C20012A1AD070B40222046880F83B
:103070003D20D1E9006503466068A26820F0700138
:1030800022F0800231432A43012600256160A260BC
:1030900083F83D6083F83C50284670BC704702209E
:1030A000704700BF90F83C30012B22D030B4D1E9FA
:1030B0000253044623F44073D1E900202B4323F448
:1030C0008063034323F40063D1E90450134323F4E2
:1030D00080532B4323F40053C9692268034323F42C
:1030E00080430B430021536484F83C10084630BCF5
:1030F00070470220704700BF026811692DE9F8434C
:10310000C568836821F44051044629430069116170
:10311000D16865690343E06921F416412B4321F02E
:103120000C0103430B43D3605369A16923F440733B
:103130000B43B0F5004F53619B4B00F09A809A42CD
:1031400059D003F580639A4255D0FFF713F9974F92
:10315000636800EB800000EB80009B00B0FBF3F3A2
:10316000A7FB03235B091D01FFF704F9666800EB69
:10317000800000EB8000B600B0FBF6F6FFF7FAF82F
:10318000636800EB800000EB80009B00B0FBF3F372
:10319000A7FB03235B094FF0640909FB13631B01C1
:1031A0003233A7FB03235B0903F0F006FFF7E2F8D5
:1031B000626800EB800000EB80009300B0FBF3F846
:1031C000FFF7D8F8D4E9002300EB800000EB800083
:1031D0009B00B0FBF3F3A7FB03135B0909FB13830D
:1031E0001B013233A7FB0313C3F3431333432B44B5
:1031F0009360BDE8F883FFF7CDF86C4F636800EB90
:10320000800000EB80009B00B0FBF3F3A7FB0323DF
:103210005B091D01FFF7BEF8666800EB800000EB5C
:103220008000B600B0FBF6F6FFF7B4F8636800EB79
:10323000800000EB80009B00B0FBF3F3A7FB0323AF
:103240004FF064095B0909FB13631B013233A7FBD1
:1032500003235B0903F0F006FFF79CF8626800EBBC
:103260008000930000EB8000B0FBF3F8FFF792F8CA
:10327000A8E79A4259D003F580639A4255D0FFF7E8
:1032800079F84A4F636800EB800000EB80005B0038
:10329000B0FBF3F3A7FB03235B091E01FFF76AF8FA
:1032A000656800EB800000EB80006D00B0FBF5F579
:1032B000FFF760F8636800EB800000EB80005B00C4
:1032C000B0FBF3F3A7FB03235B094FF0640909FB91
:1032D0001353DB003233A7FB03231B0903F4F875F8
:1032E000FFF748F8626800EB800000EB80005300B5
:1032F000B0FBF3F8FFF73EF8D4E9002300EB8000C1
:1033000000EB80005B00B0FBF3F3A7FB03135B094A
:1033100009FB1383DB003233A7FB0313C3F3421310
:1033200033442B449360BDE8F883FFF733F81F4F15
:10333000636800EB800000EB80005B00B0FBF3F300
:10334000A7FB03235B091E01FFF724F8656800EB68
:10335000800000EB80006D00B0FBF5F5FFF71AF878
:10336000636800EB800000EB80005B00B0FBF3F3D0
:10337000A7FB03234FF064095B0909FB1353DB0030
:103380003233A7FB03231B0903F4F875FFF702F898
:10339000626800EB8000530000EB8000B0FBF3F8A4
:1033A000FEF7F8FFA8E700BF001001401F85EB51B2
:1033B00060B338B590F83930044603F0FF0203B328
:1033C0002268242384F83930D36823F40053D3606F
:1033D0002046FFF791FE23681A6922F490421A6191
:1033E0005A6922F02A025A61DA680025202142F443
:1033F0000052DA60E56384F8391084F83A10284600
:1034000038BD80F8382004F087FAD9E701207047EA
:103410002DE9F041044690F8390020287CD10E4671
:10342000002955D01546002A52D0984694F83830D5
:10343000012B71D00023E3630122212384F839306A
:1034400084F83820FDF77EFDE584E38CA5849BB2EB
:1034500025680746A3B1E28CA168013A92B2B1F5A2
:10346000805FE28426D0B8F1FF3F34D12B68180684
:10347000FCD516F8013B6B60E38C9BB2002BEAD1C4
:10348000B8F1FF3F4BD12B685A06FCD52023002012
:1034900084F8393084F83800BDE8F0812B681B06C9
:1034A0000ED4B8F1000F22D0FDF74CFDC01B8045B3
:1034B00025681CD3B8F1FF3FF0D12B681A06FCD564
:1034C00033882269C3F308036B601ABB0236D3E763
:1034D0000120BDE8F0812B681906CAD4B8F1000FAD
:1034E00005D0FDF72FFDC01B80452568BBD2EB68DA
:1034F00023F4D073EB606B69202223F001030021D9
:103500006B6184F8392084F8381084F83A2003205D
:10351000BDE8F0810136AFE70220BDE8F0812B68FD
:103520005B06B3D4B8F1000FE1D0FDF70BFDC01B73
:1035300080452568A4D2DAE7F8B5044690F83A0049
:10354000202874D10F4600294FD01646002A4CD0AF
:103550001D4694F83830012B69D00023E363012223
:10356000222384F83A3084F83820FDF7EBFCE68516
:10357000E38DA6859BB20646CBB1E28DA368013AE6
:1035800092B2B3F5805FE28521D0681C23682ED10A
:103590001A689106FCD521695B687A1C09B103F0B1
:1035A0007F033B701746E38D9BB2002BE5D12023B0
:1035B000002084F83A3084F83800F8BD1A68920682
:1035C0000BD4F5B1FDF7BEFC801B854218D3681CF7
:1035D0002368F3D11A689106FCD522695B6812BB97
:1035E000C3F3080327F8023BDDE70120F8BD1A68A2
:1035F0009206D0D42DB1FDF7A5FC801B8542C4D224
:103600002368DA6822F4D072DA605A69202122F045
:10361000010200255A6184F8391084F8385084F882
:103620003A100320F8BDDBB227F8013BBBE70220CC
:10363000F8BD00BF84B070B4099E04AD012E85E8CA
:103640000E00044631D1836B109A23F480338363D8
:10365000C36823F4840323F04003C360C368012AD2
:1036600023F44013C36043D0264B01E0013B44D018
:103670002269002AFADA2269224B42F00102226111
:1036800001E0013B39D0206910F00100F9D1079B1E
:10369000012B07D1A36843F00603A360A36843F09E
:1036A0002003A36070BC04B07047C268154B42F0A1
:1036B0004002C26001E0013B21D02269002AFADA0F
:1036C0002269104B42F00102226101E0013B16D059
:1036D000206910F00100F9D10D9B23B9A36B43F4CD
:1036E0008033A363D3E7A36B23F48033A363CEE7D4
:1036F000C36843F48013C360B6E70320C7E7032021
:10370000EAE700BF400D0300022A0AD04FF410512F
:10371000C26822F47052C260C3680B43C3600020C9
:103720007047264B264A0B44934232D9254B264AF2
:103730000B44934230D9254AA1F57403A3F51053E5
:1037400093422CD9224AA1F18373A3F5E743934214
:1037500028D3204B204A0B44934226D91F4B204AA2
:103760000B44934224D31F4B1F4A0B449342CDD3A7
:103770001E4AA1F1B773A3F5585393421BD31C4BB8
:103780001C4A0B44934234BF4FF4E0514FF4C051F4
:10379000BEE74FF47051BBE74FF46051B8E74FF408
:1037A0005051B5E74FF44051B2E74FF43051AFE715
:1037B0004FF42051ACE74FF40051A9E7405327FFE5
:1037C000FF340C00401E1BFF3F420F007F4F1200D2
:1037D00020D6130060B6E5FE5FE3160000D3CEFEF0
:1037E00040771B00C05BB3FEC091210020753800FC
:1037F000E05459FEE09C4100034600209A6842F0E4
:1038000001029A60704700BF034600209A6822F0C8
:1038100001029A60704700BF08B5C368012923F010
:10382000C043C3600BD041B9C36843F08043C36059
:103830003220FDF78DFB002008BD012008BDC368C4
:1038400043F00053C360F3E784B02DE9F04709ACBF
:1038500084E80E000022139EC0F80421C0F808215D
:10386000C0F80C21C0F81021C0F81421C0F81821AC
:10387000C0F81C21C0F82021C0F82421C0F828215C
:10388000C0F82C21C0F83021C0F83421C0F838210C
:10389000C0F83C210C9F826B03460C46002E40F082
:1038A000A28022F400128263026842F040020260A9
:1038B000026842F0800202600022C3F8002E0E9AD5
:1038C000D3F80018C3F80018012A03F5006500F0CA
:1038D0009C80D3F8002842F00302C3F800284FF47C
:1038E00084621A61524A02E0013A00F09C80186931
:1038F00010F02000F8D110221A614D4A02E0013A7E
:1039000000F093801969C906F9D400212961696121
:10391000E96104B38E4603F510624FF090494FF011
:10392000006A4FF67F380AE0C2F800E00131A14298
:10393000C2F810E0C2F8088002F1200231D0D2F8BB
:1039400000C0BCF1000FEFDA11B1C2F80090EDE752
:10395000C2F800A0EAE72A69012F22F480722A61E6
:1039600045D000216FF0804299615A611FB99A6970
:1039700042F010029A619C692E4A0F9922439A6183
:1039800019B19A6942F008029A61012E05D19A692B
:1039900042F0804242F004029A61BDE8F04704B070
:1039A000704700218E4603F530624FF090494FF08A
:1039B000006A4FF67F380AE0C2F800E00131A14208
:1039C000C2F810E0C2F8088002F12002C3D0D2F899
:1039D00000C0BCF1000FEFDA11B1C2F80090EDE7C2
:1039E000C2F800A0EAE742F40012826364E7124AD8
:1039F0002A632A6B42F4803242F003022A630021D8
:103A00006FF0804299615A61B5E70B9A22B9D3F8F9
:103A10000028C3F8002862E7D3F8002842F001022A
:103A2000C3F800285BE7012065E701206DE700BFD0
:103A3000400D030000383C8000018000890141F006
:103A40002001064A016101E0013A05D0036913F043
:103A50002003F9D11846704703207047400D03003A
:103A6000D0F8083813F0060004D013F0020F14BF8A
:103A700002200F20704700BF30B40A784D7802F062
:103A80000F040123012D03FA04F300EB421400F5A7
:103A9000006019D0C26942EA0343C361D4F8003B15
:103AA0001B040ED48B68D4F8000BCA78C3F30A0346
:103AB000034343EA824343F0805343F40043C4F892
:103AC000003B002030BC7047C5692B43C361D4F86C
:103AD00000391804F5D48B68D4F80009C978C3F309
:103AE0000A03034343EA814343EA825242F080528D
:103AF00042F40042C4F80029002030BC704700BFE7
:103B000010B40A78497802F00F0400EB421200F575
:103B100000600123012903FA04F3C46B10D024EAE6
:103B20000344C463C4690F4924EA0343C361D2F860
:103B3000003B5DF8044B19400020C2F8001B7047A1
:103B400024EA0304C463C469074924EA0303C36184
:103B5000D2F800395DF8044B19400020C2F8001972
:103B6000704700BF0078F3EF007833EC2DE9F047A1
:103B700091F801C00E784B69CF78BCF1010F00EBD2
:103B8000461551D0D5F8106BD1F808C0F60CF604E4
:103B9000C5F8106BD5F8106B26F0FF5626F4C0164A
:103BA00005F5306426617BB3DFF8F4E1D4F81080CA
:103BB00003EB0C06013EB6FBFCF60EEAC64343EAF5
:103BC00008032361B6B20CFB06F32669C3F31203A4
:103BD0003343012A236122D0012F0CD1D0F80838B9
:103BE00013F4807FD5F8003B0CBF43F0005343F043
:103BF0008053C5F8003BD5F8003B43F00443C5F8BB
:103C0000003B0020BDE8F0872669CCF31203334364
:103C100023612369012A43F400232361DCD1CB68AB
:103C2000002BD9D06361D7E705F51064F3B3D4F85E
:103C30001080D1F808A0DFF868E14FEAD8484FEAD1
:103C4000C848C4F81080D4F8108028F0FF5828F431
:103C5000C018C4F81080D4F810900AEB030808F1DB
:103C6000FF38B8FBFAF80EEAC84E4EEA090EC4F85F
:103C700010E0D4F81080C3F3120E4EEA080E012FA4
:103C8000C4F810E054D0012A74D0D5F8003943F0BC
:103C90000443C5F80039D0F8343806F00F060CFAA2
:103CA00006FC4CEA0303C0F83438AAE7D4F810C085
:103CB0002CF0FF5C2CF4C01CC4F810C0D4F810C069
:103CC0004CF4002CC4F810C0D4F810C04FEADC4CFF
:103CD0004FEACC4C012AC4F810C03ED0D5F80049B8
:103CE000012F44F00444C5F800498AD1D0F80848AF
:103CF00014F4807FD5F800490CBF44F0005444F020
:103D00008054C5F80049002A7FF47BAF9BB203338F
:103D10009A083FF476AFCB6800EB063003EB8201E4
:103D200000F5805053F8042B02608B42FAD168E70B
:103D3000D4F810C02CF0C04CC4F810C0D4F810C097
:103D4000012A4CF0005CC4F810C018D0D5F8004926
:103D500044F00444C5F80049C8E70B696BB9012F6A
:103D600010D0D5F8003943F00443C5F800390020DD
:103D7000BDE8F0870B69002BF3D06361EFE70B69B7
:103D8000002BFAD1D0F8083813F4807FD5F8003929
:103D90000CBF43F0005343F08053C5F80039E0E70F
:103DA0000000F81F4B78F0B40D784E69012B00EB42
:103DB00045142AD0D4F8105B8868ED0CED04C4F8E3
:103DC000105BD4F8105B25F0FF5525F4C01504F501
:103DD00030631D6106B148611D6945F400251D6110
:103DE0001D69C0F312002843012A186108D0D4F8D5
:103DF000003B43F00443C4F8003B0020F0BC704794
:103E0000CA68002AF3D05A61F1E704F510637EB363
:103E10001F69D1F808C0FF0CFF041F611F6927F05C
:103E2000FF5727F4C017B4451F613FD21E69C1F880
:103E300014C046F400261E611F69CCF312063E43EF
:103E4000012A1E612DD0D4F8003943F00443C4F890
:103E50000039BCF1000FD0D0D0F8343805F00F0293
:103E6000012595401D43C0F834580020F0BC704730
:103E7000186920F0FF5020F4C0101861186940F450
:103E8000002018611869C00CC004012A186108D00C
:103E9000D4F8003943F00443C4F800390020F0BCE2
:103EA00070470A69002AF3D05A61F1E71F6947F4A5
:103EB00000271F611F69C6F312063E43012A1E61D7
:103EC000EFD0D4F8003943F00443C4F80039C3E715
:103ED00010B49DF8044064B903339B0809D0013243
:103EE00000EB023001EB830351F8042B02608B429C
:103EF000FAD100205DF8044B704700BF03329208EE
:103F00000CD010B400F5805401EB8200236841F816
:103F1000043B8842FAD15DF8044B7047084670476D
:103F20004A780B78012A00EB43100CD0D0F8002B14
:103F3000002A00DBD3B9D0F8003B43F40013C0F8EB
:103F4000003B00207047D0F80029002A06DB2BB187
:103F5000D0F8003923F08043C0F80039D0F8003998
:103F600043F40013C0F8003900207047D0F8003B3C
:103F700023F08043C0F8003BDDE700BFCB784A78F0
:103F800010B40C78023B012A00EB4410DBB215D0D0
:103F9000D0F8002B012B22F40012C0F8002B03D91B
:103FA00000205DF8044B7047D0F8003B5DF8044BEF
:103FB00043F08053C0F8003B00207047D0F8002940
:103FC000012B22F40012C0F80029E9D8D0F80039FA
:103FD0005DF8044B43F08053C0F80039002070476F
:103FE000D0F8003823F4FE63C0F80038D0F8003869
:103FF000090101F4FE611943C0F800180020704760
:1040000008B5D0F8042822F0020200F5006303206E
:104010005A60FCF79DFF002008BD00BF08B5D0F82E
:10402000042842F0020200F5006303205A60FCF706
:104030008FFF002008BD00BF4269806910407047B3
:10404000D0F8183800F50060C0691840000C7047BF
:10405000D0F8183800F50060C069184080B2704789
:1040600000EB411100F50060D1F8082B40691040C9
:10407000704700BF10B4D0F81048D0F8343800EBC7
:10408000411001F00F0100F51060CB40DB018068AA
:10409000DBB2234318405DF8044B7047406900F0E1
:1040A00001007047D0F8003923F4FF6323F00703C1
:1040B00000F50062C0F80039936803F00603042B92
:1040C00005D1D0F8003943F00303C0F80039536834
:1040D00043F4807353600020704700BF30B4124C2B
:1040E000056CA54200F5306303D9D0F8004B002CD5
:1040F00016DB00241C611C6944F400241C611C694B
:1041000044F018041C611C69012944F0C0441C617E
:1041100006D15A61D0F8003B43F08023C0F8003B41
:10412000002030BC704700BF0A30544FD0F89432A2
:1041300083B110B5D0F8904294F80002FF2807D060
:104140009B6894F8012221469847FF2384F80032A7
:10415000002010BD002070474323038000487047B3
:104160004000002043230380004870478400002063
:104170004323038000487047D40000200A230380B3
:1041800000487047C800002038B50446D0F8905267
:1041900003F0C4FDD4F89032C5F80C024BB1D4F84A
:1041A0009432D5F80402DB6805F5037198470020C6
:1041B00038BD022038BD00BFF8B5D0F89072E7B125
:1041C00001EB810600EB8606F3695BB1D0F898221B
:1041D000C1EBC10402EB8404626CB3FBF2F402FB9A
:1041E00014341CB10020C7F81402F8BDF461234652
:1041F000224603F077FD2046F8BD0220F8BD00BF3F
:104200002DE9F0410B78D0F8908282B0002713F0AE
:1042100060060C4605468DF80570ADF8067015D0A1
:10422000202E19D1CE8891F801C0F6B11B063FD5DA
:10423000D0F89432324641469B6860469847E288FF
:10424000414628463E4600F0EBFC0AE04B780A2B3C
:104250001FD00B2B27D093B12146284600F0AEFC8F
:104260000226304602B0BDE8F081D0F894323246E2
:104270009B6860469847304602B0BDE8F08190F8F0
:104280007432032BE8D102220DF1060100F0C8FCC4
:10429000E7E790F87432032BDED101220DF105011E
:1042A00000F0BEFCDDE790F87432032BD9D0D3E7E1
:1042B00088F80162324688F800C2414600F0C6FC28
:1042C0003E46CEE738B504460025812103F0BEFC0A
:1042D0000121E562204603F0B9FCC4F8585120469C
:1042E000822103F0B3FCD4F8903225644BB1D4F8AA
:1042F00094325B689847D4F8900204F087FDC4F8C4
:104300009052002038BD00BF2DE9F041037C0446E7
:10431000C3BB01254FF400730222812103F086FC08
:10432000E56229464FF400730222204603F07EFC2A
:10433000C4F8585108230322822120464FF0010877
:1043400003F074FCC4F840804FF4077004F056FD8D
:104350000546C4F8900260B3D4F894321B689847BD
:10436000267CD5F804220027C5F814724146C5F80A
:1043700018722046B6B140233E4603F0C1FC3046D9
:10438000BDE8F081012540230222812103F04EFC8B
:10439000E562294640230222204603F047FCC4F888
:1043A0005851C7E74FF4007303F0AAFC3046BDE84C
:1043B000F0814646E3E700BF19B1C0F8941200202F
:1043C00070470220704700BFD0F890320020C3F839
:1043D0000812C3F810227047D0F890320020C3F8BA
:1043E00004127047D0F8902210B58AB1047CD2F83C
:1043F000042234B140230121002403F081FC204633
:1044000010BD4FF40073012103F07AFC204610BD6B
:104410000224204610BD00BF88B108B5D0F88C3208
:1044200013B10023C0F88C3209B1C0F888120123FF
:10443000027080F8743203F0B5FB002008BD022042
:10444000704700BF19B1C0F88C12002070470220DD
:10445000704700BF08B503F0DBFB002008BD00BFBC
:1044600008B5D0F88C321BB11B68984700B908BD5D
:10447000022008BD08B5D0F88C325B689847002050
:1044800008BD00BF38B5044600F52075284600F089
:1044900081FB94F88012B4F88632C4F8703201229D
:1044A00001F01F039342C4F86C2209D0022B13D0F1
:1044B00063B101F08001204603F0D6FB002038BD37
:1044C0002946204600F09CFA002038BD29462046A7
:1044D00000F006F9002038BD2946204600F0C4FA55
:1044E000002038BD38B5054669B91346D0F86C22AE
:1044F000032A15D0052A0C460ED1C5F86C1203F01C
:10450000B3FB204638BDD0F88C329B6933B190F8AC
:104510007422032A02D19847002038BD022038BDFA
:10452000D0E9531291420CD9891A8A4288BF8AB2C3
:10453000C0F84C1198BF92B2194600F095FB0020CC
:1045400038BDD0F88C321B691BB190F87422032A55
:1045500004D0284600F090FB002038BD9847F8E7CB
:1045600070B5044689B91346D0F86C22022A1CD0D3
:1045700032F0040302D1802103F076FB94F8783204
:10458000012B4FF000000DD070BDD0F88C325B696C
:1045900033B190F87422032A02D19847002070BDED
:1045A000022070BD84F8780270BDD0E90826B242BE
:1045B00027D8C369B3FBF6F506FB15355DB99E42F6
:1045C00009D8D0F87022934205D22A4600F036FB73
:1045D000C4F870521CE0D4F88C32DB681BB194F83C
:1045E0007422032A1BD08021204603F03DFB204685
:1045F00000F04EFB94F87832012B4FF00000C3D14D
:10460000D0E7921B0D460262194692B200F016FBEB
:104610002B462A462946204603F072FBAEE7204689
:104620009847E0E770B50022044640231E46114635
:10463000012503F0FBFA33468021C4F84451C4F845
:1046400050612046002203F0F1FAD4F89032A561BF
:104650000021666284F87452C4F86C126160C4F878
:104660007C1223B1D4F88C3220465B689847002036
:1046700070BD00BF01740020704700BF90F8742225
:1046800080F87522042380F874320020704700BF40
:104690000346002093F8752283F87422704700BF08
:1046A00090F87422032A01D00020704708B5D0F892
:1046B0008C32DB6903B19847002008BD00207047A9
:1046C000002070470020704708B5D0F88C220121E7
:1046D00080F87412526801799047002008BD00BF2D
:1046E00030B50B7803F06003202B83B00D460446F1
:1046F0000DD0402B0BD09BB18021204603F0B4FAA3
:104700002046002103F0B0FA002003B030BDD4F8F9
:104710008C3229469B6820469847002003B030BD64
:104720004B78092BE8D801A252F823F087470008FC
:10473000B3470008F9460008D1470008F9460008C9
:10474000D947000811480008F946000861480008E8
:10475000554700088978A94D01292970CCD890F8CF
:104760007432022B00F02781032B00F0138180218B
:1047700003F07AFA0021204603F076FA29782046E1
:10478000FFF778FEC0E790F87432013B022BB3D8F4
:10479000CB88022BB0D1D0F87C320122C2600BB1A1
:1047A0000323C360022204F10C01204600F038FA12
:1047B000AAE790F87432013B022B9DD84B88012B5D
:1047C000A2D10023C4F87C32204600F055FA9BE7C2
:1047D0004B88012B98D1F5E78B88002B8CD1CB88A7
:1047E000002B89D14D887F2D86D890F87432032B09
:1047F00082D0E9B280F8761203F066FA204600F023
:104800003BFA002D00F0F680022384F874327BE737
:104810004A88130A013B0E2B3FF66EAF01A151F8F7
:1048200023F000BFFD480008E5480008D348000811
:10483000F9460008F9460008BD4800080D4900087F
:10484000F9460008F9460008F9460008F94600084C
:10485000F9460008F9460008F946000887480008AC
:10486000CA88012A7FF448AF90F87432022B00F214
:104870008A80002B3FF440AF0146002341F8083FF7
:1048800000F0CEF940E7D0F88832007CDB690DF10A
:1048900006019847BDF80620EB885AB1002B93D04B
:1048A0009A4228BF1A4601462046ADF8062000F07D
:1048B000B7F9EB88002B7FF427AF85E7037C002B4B
:1048C0007FF41AAFD0F88C320DF106005B6B98477D
:1048D000E0E7D2B2052A3FF60FAFDFE802F04C4422
:1048E0003C342C24027CD0F88C32002A71D19B6A93
:1048F0000DF10600984702234370CBE7D0F88832C9
:10490000007C1B680DF106019847C3E7037C002B70
:104910007FF4F2AED0F88C320DF106001B6B984795
:1049200007234370B6E7D0F88832007C9B690DF10D
:1049300006019847AEE7D0F88832007C5B690DF13C
:1049400006019847A6E7D0F88832007C1B690DF174
:10495000060198479EE7D0F88832007CDB680DF1AD
:104960000601984796E7D0F88832007C9B680DF1E5
:10497000060198478EE7D0F88832007C5B680DF11D
:104980000601984786E7032B7FF4B6AE011D00F0C1
:1049900047F9B9E621B3416801293FF415AFC9B21F
:1049A000FFF768FD297861602046FFF759FD02286E
:1049B0007FF40AAFA0E600293FF406AF01210323EC
:1049C000416080F87432FFF74BFD02287FF4FCAEA3
:1049D00092E6DB6A0DF1060098470223437059E71F
:1049E0000223416080F87432FFF744FD204600F056
:1049F00043F989E6012384F8743285E680030020B8
:104A000038B50B7803F06002402A0D4604460AD000
:104A10005B0608D5802103F027F92046002103F02A
:104A200023F9002038BD94F87432013B022B11D8D1
:104A30002B79012B0ED8D4F88C3229469B6820465E
:104A40009847EB88002BECD10028EAD1204600F0F3
:104A500013F9E6E78021204603F006F920460021FD
:104A600003F002F9002038BD70B50B7803F0600345
:104A7000202B04460CD0402B0AD083B18021204645
:104A800003F0F2F82046002103F0EEF8002070BD9C
:104A9000D4F88C3220469B689847002070BD4B7834
:104AA0008A88012BD5B23CD0032B29D0002BE5D12D
:104AB00090F87432022B4DD0032BDFD105F00F0399
:104AC00003EB8303120600EB830352D4D3F8443183
:104AD000002BD3D005F07F03142606FB030606F552
:104AE000A07633B12946204603F0DAF800284BD0EF
:104AF0000123336031462046022200F091F8C5E7D9
:104B000090F87432022B1BD0032BB7D14B8823B9FA
:104B10006A0602D0CB88002B38D0204600F0ACF8D3
:104B2000B4E790F87432022B0AD0032BA6D14B883D
:104B3000002BABD16E06F0D0294603F0A3F8ECE7CA
:104B40006B069BD0294603F08FF82046802103F0A6
:104B50008BF89BE7680691D111064CBF04F1140154
:104B600004F5A071002320460B60022200F058F8E3
:104B70008CE79B69002B81D005F07F035E1C06EB60
:104B8000860600EB8606ACE73060B3E7294603F003
:104B90006BF8C2E70B7803704B784370CA788B7858
:104BA00003EB022343804A790B7903EB02238380D2
:104BB000CA798B7903EB0223C380704710B580213B
:104BC000044603F051F820460021BDE8104003F0F0
:104BD0004BB800BF08B3037870B4FBB10446C0F112
:104BE0000106A31914F8015FDBB2002DF9D10133DE
:104BF0005B00032413800B704C7004785CB10223BB
:104C000000255A1CD2B2CC548D5410F8014F0233F7
:104C1000DBB2002CF5D170BC704770470223E8E787
:104C200038B5134602250A46C0E90733C0F86C526E
:104C3000002103F057F8002038BD00BF08B5134627
:104C40000A46002103F04EF8002008BD38B513468F
:104C500003250A46C0E95233C0F86C52002103F024
:104C60004FF8002038BD00BF08B513460A460021A2
:104C700003F046F8002008BD08B504220023C0F860
:104C80006C2219461A4603F02DF8002008BD00BF1B
:104C900008B505220023C0F86C2219461A4603F015
:104CA0002FF8002008BD00BF094A42620022C0ED73
:104CB000062A80ED000AC0ED010A80ED021AC0ED5F
:104CC000031A80ED052AC26180F82020C262704775
:104CD0000000C07F10B5D0ED097A2DED068B90ED68
:104CE0000A8AF4EE677A38EE408AF1EE10FA04464A
:104CF00068BF80ED098AB0EE409AFCF723F9E36AB9
:104D0000DFED396AD4ED097AC01A07EE100AB8EE61
:104D1000C77AB0EEC76AB4EEE66AF1EE10FA06D9C9
:104D200077EEC87AF5EE407AF1EE10FA58D19FEDA1
:104D30002FAAD4ED047AD4ED056AD4ED018AD4ED1E
:104D4000005A94ED026AD4ED039A94ED0A0A94F89D
:104D50002030E7EE087AB1EE667AF4EEE67AF1EE0C
:104D600010FA58BFF0EE667AB4EEE77AF1EE10FA78
:104D700058BFF0EE477A67EEA88A28EE258A2AEE19
:104D800006AA69EE809AC4ED047A3BB1E3692BB1BF
:104D9000B0EE490A9847B0EE409A01E09FED139AB1
:104DA000FCF7D0F838EE288AD4ED067AE06238EEC7
:104DB0000A8AB1EE677A38EE298A38EE090ABDEC24
:104DC000068BF4EEC07AF1EE10FAD8BFB0EE670AA7
:104DD000B4EEC07AF1EE10FA58BFB0EE470A10BD3B
:104DE00087EE87AAA5E700BFBD3786350000000023
:104DF00080ED0A0A704700BF30B51948194B1A4CAC
:104E0000036085B04FF48033002501224360C0E980
:104E10000A450023CDE901338360009303610376E3
:104E200080F82030C36080F830300393C261426163
:104E3000FCF7A0F860B90A22012300240848029474
:104E40006946CDE90023FCF743F920B905B030BD30
:104E500000F0BCFDEFE700F0B9FD05B030BD00BFCC
:104E600088030020002001400100000F30B50268D7
:104E70001F4B8BB000249A42CDE90444CDE906448F
:104E8000089401D00BB030BD03F58C3301945A6CFB
:104E9000184842F480725A645A6C02F4807201928B
:104EA000019A02941A6B42F004021A631A6B02F020
:104EB00004020292029A03941A6B42F001021A63EE
:104EC0001B6B03F0010303933F22032304A9CDE9E5
:104ED0000423039DFCF726FA302203230648069498
:104EE00004A9CDE90423FCF71DFA0BB030BD00BFC7
:104EF00000200140000802400000024082B070B46F
:104F000083B06D4685E80600044695E803000899DD
:104F1000079384E80500184604F1080383E80300BA
:104F2000099D9DF82C009DF828609DF83010607553
:104F3000002200232046256126756177A261237730
:104F400003B070BC02B07047F7EE007AB4EEE70A27
:104F5000F1EE10FA10B5B0EEC07A04462DD5FFEE92
:104F6000007AB4EEE70AF1EE10FAD8BFB0EE670AA5
:104F7000637F84ED060A1BB1B1EE400A84ED060A98
:104F8000DFED447AB4EEE77AF1EE10FA18D8226930
:104F9000237D116800222277002B46D0042B6AD093
:104FA000082B4FF480530CBFCB630B64637D002B45
:104FB00041D14FF480534B6310BDB0EE670AD7E781
:104FC00003F000F894ED067ADFED337A2369217D52
:104FD0001A68B0EEC77AE7EE677AB8B9FCEEE77AFE
:104FE0000123237717EE903A9BB269B304294CD082
:104FF00008294FF480510CBFD1631164617D91B1D8
:10500000042936D0082930D0136410BDFCEEE77AAD
:105010000223237717EE903A9BB2C9B95363637D9D
:10502000EBB94FF48053536310BD4FF480534B637F
:10503000637D002BBDD0042B21D0082B4FF480536F
:105040000CBFCB630B6410BD4FF480515163D5E7A7
:10505000042918D008290CBFD3631364DFE7042B9D
:1050600005D0082B4FF48053CED1D36310BD4FF43D
:105070008053936310BD4FF480538B6396E74FF4D6
:1050800080538B6310BD9363C9E74FF480519163E4
:10509000B4E700BFBD378635000080452DE9F043F9
:1050A00000248FB0CDE90844CDE90A44504B009468
:1050B0000C941A6B4F4DDFF84881DFF8489142F0AD
:1050C00010021A631A6B02F010020092009A019407
:1050D0001A6B42F004021A631A6B02F00402019286
:1050E000019A02941A6B42F020021A631A6B02F0C2
:1050F00020020292029A03941A6B42F080021A6311
:105100001A6B02F080020392039A04941A6B42F025
:1051100001021A631A6B02F001020492049A0594C8
:105120001A6B42F002021A631A6B02F00202059235
:10513000059A06941A6B42F008021A631A6B02F081
:1051400008020692069A07941A6B42F040021A630C
:105150001B6B03F040030793224628464021079B20
:10516000FCF700FA224640468021FCF7FBF9224B6F
:105170000A9408A948464FF40052CDE90823FCF7E9
:10518000D1F808A94FF4846200231C480A94CDE9A1
:1051900008230026FCF7C6F8002708A92846402265
:1051A0000123CDE90823CDE90A67FCF7BBF82846BF
:1051B00008A980220023CDE908230A94FCF7B2F85D
:1051C000484608A94FF440620023CDE908230A9419
:1051D000FCF7A8F88022012308A94046CDE90A6718
:1051E000CDE90823FCF79EF80FB0BDE8F08300BFBF
:1051F0000038024000180240000011100014024064
:1052000000040240000802400B480C4908B50C4B52
:1052100003604FF480420023C0E90233C0E9053344
:10522000C0E9073341600261FCF7A0F900B908BD8D
:10523000BDE8084000F0CABBD0030020801A060079
:10524000005400400B480C4908B50C4B03604FF468
:1052500080420023C0E90233C0E90533C0E90733C7
:1052600041600261FCF782F900B908BDBDE8084061
:1052700000F0ACBB24040020801A06000058004057
:1052800070B503682C4A8AB000249342CDE90444E7
:10529000CDE90644089404D0284A934227D00AB0A6
:1052A00070BD274D00942B6B264843F002032B63FF
:1052B0002B6B03F0020300934FF410721223CDE91D
:1052C000042301220323CDE9062304A90423089320
:1052D000009EFCF727F801942B6C43F400132B6419
:1052E0002B6C03F400130193019B0AB070BD144DA5
:1052F00002942B6B144843F020032B632B6B03F0B9
:105300002003029303221223CDE904230122032365
:10531000CDE9062304A904230893029EFCF702F8B2
:1053200003942B6C43F480032B642B6C03F48003F5
:105330000393039B0AB070BD005400400058004026
:1053400000380240000402400014024000B583B05F
:105350004FF6FF730190012201A90348FEF758F8A8
:10536000019803B05DF804FB0808002000B583B085
:105370004FF6FF7301220DF107010448FEF7DCF838
:105380009DF8070003B05DF804FB00BF080800208B
:105390002DE9F04120214048FCF7DEF84FF4806110
:1053A00004463D48FCF7D8F84FF4006106463B48F8
:1053B000FCF7D2F84FF4806105463848FCF7CCF88A
:1053C000374BA4F101071A78B7FA87F77F09A6F1DE
:1053D0000108A5F1010CA0F1010EB8FA88F8BCFA99
:1053E0008CFCBEFA8EFEBA424FEA58185A784FEA41
:1053F0005C1C4FEA5E1E38D020D2012E14BF01245F
:105400004FF0FF3427490A6822440A60264A11787F
:105410005478614519D038D2012814BF01244FF0C7
:10542000FF3422480168214401601F7083F8018025
:1054300082F800C082F801E0BDE8F08117D9012EA2
:1054400014BF4FF0FF340124DCE77445EDD0744500
:1054500005D3012D14BF01244FF0FF34E1E7012DE6
:1054600014BF4FF0FF340124DBE74245CED0904516
:1054700005D8012C14BF01244FF0FF34C2E7012CE2
:1054800014BF4FF0FF340124BCE7E0D9012814BF5A
:105490004FF0FF340124C4E700140240000802402A
:1054A0007C04002078040020840400208004002074
:1054B000F0B50024ADB0214615A85C22CDE90A4420
:1054C000CDE90C44CDE90244CDE90444069403F04F
:1054D000B3FC234A0094116C224B41F080511164BB
:1054E000126C02F080520092009A01941A6842F401
:1054F00040421A601B6803F44043019301224FF4B9
:10550000A023CDE9082302224FF48003CDE90E2326
:105510000422A823CDE9102302210222072308A890
:105520000F260227CDE912231491019DFDF7AEF954
:10553000CDE902674FF48053052102A800264FF4FD
:10554000A0570693CDE90467FCF774FE4FF480730F
:1055500015A82A941593FCF72DFF2DB0F0BD00BFC0
:1055600000380240007000402DE9F04F2DED048B13
:1055700089B0FBF7C1FCFFF79BFFFFF78FFDFFF73B
:105580003BFCFFF741FEFFF75DFE01F07DFF01F000
:10559000FFFF02F05DF802F0BDF802F01DF900F027
:1055A0005FFB00F001FD00F0A1FE01F041F801F009
:1055B000E3F901F083FB02F093F902F0E7F900212F
:1055C0008B488C4FDFF860A2DFF87492DFF87482AA
:1055D000DFF874B29FED889AFDF70CFC0421844833
:1055E000FDF708FC00218548FDF704FC04218348F1
:1055F000FDF700FC20218248FBF7AEFF4FF48061ED
:1056000004467F48FBF7A8FF0346A4F10104A3F179
:1056100001037C4A7C48B4FA84F4B3FA83F35B094F
:105620006409147053704FF40061FBF795FF4FF459
:10563000806104467448FBF78FFF0346A4F1010420
:10564000A3F10103714A72499FED720A0868B4FA26
:1056500084F4B3FA83F35B09640914705370FFF7A1
:1056600073FC6D4B9FED6B0A1868FFF76DFC6B4B7D
:105670009FED680A1868FFF7BBFB694B9FED650A51
:105680001868FFF7B5FB80220021384603F0D4FBF1
:10569000644804F0D1F9FFF77BFE0124ABFB04233F
:1056A000DAF80020DB08126803EB8303A4EB430461
:1056B0009306E4B211D54FF6FF7301225A480DF15B
:1056C0001F01FDF739FF594B9DF81F201B78002B58
:1056D00051D1232A4FD0212A54D00134E4B2FFF70C
:1056E00057FE0A2CDAD1524B93ED000A514BB8EE1B
:1056F000C00A1D68494B20EE090A1868FFF7EAFA4C
:1057000007EE905A464BF0EE408AB8EEE70A18686A
:1057100020EE090AFFF7DEFAF6EE007AF4EEE78AE9
:10572000F1EE10FAB0EE408A5FD5FEEE007AF4EEAC
:10573000E78AF1EE10FAD8BFF0EE678AF6EE007A4B
:10574000B4EEE78AF1EE10FA4CD5FEEE007AB4EE34
:10575000E78AF1EE10FAD8BFB0EE678A2C4BB0EEB4
:10576000680A1868FFF7F0FB2B4BB0EE480A186880
:10577000FFF7EAFB92E72D49FA54212A03F10103CE
:105780000B70AAD11B492C4804F072F80023C9E918
:105790000033C9E90233C8E90033C8E902331D46C2
:1057A000C9F81030C8F8103007E093B1212A4DD065
:1057B0007F2D05F1010508D0EDB27A5D2C2AF4D1D8
:1057C0007F2D2B4605F10105F6D11C4804F034F974
:1057D000D4E06A1C7F2DD5B2F7D07A5D2C2A08BFA1
:1057E0002B46E5E7B0EE678AB8E7F0EE678AA5E7F3
:1057F00048050020880400207CD9203D08070020AF
:10580000001402407C0400200008024084040020B0
:1058100034050020000000003C0500203805002071
:105820004005002050CE0008080800200805002090
:10583000780400208004002064CE000874CE0008A4
:105840000C05002020050020CDCCCCCC002D00F094
:105850009280012B0ED09A1ED2B2013200214D4807
:105860000593029203F0E8FA029A4B494B4803F081
:10587000D5FA059B5E1CF6B2B5420DD9EA1A023A7A
:10588000D2B2013200214648029203F0D5FA029AC0
:105890004448B91903F0C2FA424A4049424803F069
:1058A000E7FF99F8000040B100250135EDB203F0A3
:1058B000F7FF19F805000028F7D13C4804F0BCF8C0
:1058C00098F8000040B100250135EDB203F0E8FF83
:1058D00018F805000028F7D1344804F0ADF800218D
:1058E0008022334803F0A8FA324A2C480023137070
:1058F00003F057FA2B4856EC105B03F052FA51ECC8
:10590000100BFAF721FE31460346284608EE103AFE
:10591000FAF71AFEFAF7C0FD02460B4618EE100A17
:10592000CDE90223FAF7B8FDDDE90223CDE9000154
:10593000214803F09DFF214B9FED210A1868FFF7D6
:1059400057FAF7EE007A1F4BB4EEE78AF1EE10FA41
:1059500018680DD5FFEE007AB4EEE78AF1EE10FA82
:10596000D8BFB0EE678AB0EE480AFFF741FAB4E656
:10597000B0EE678AF7E7144804F05EF80F4B9FED2E
:10598000100A1868B0EE408AFFF732FA0D4B18681B
:10599000E9E700BF0D050020890400200C05002068
:1059A0002105002020050020B8CE0008E4CE000824
:1059B0008804002008050020E8CE000838050020F3
:1059C000000000004005002090CE0008704700BF96
:1059D0002DE9F043394A3A4BDFED3A1A92E80300D9
:1059E0008DB008AC84E8030093E803000AAD85E8B5
:1059F00003004FF001092020CDED071A02F0C9FA8B
:105A0000CDF81090304B94E806004FF004080027C2
:105A100001930B9B0093CDE902780A9B0646FFF7A2
:105A20006DFA2A4BDFED2A0A1E603020CDED060A02
:105A300002F0AFFAF7EE002ADDED071ADDED060AF7
:105A40009FED242A9FED240AB0EE621A0646FFF766
:105A50002BF9224A224B92E8030084E8030093E8E2
:105A60000300204B85E8030020201E6002F091FA1D
:105A7000CDE903890B9B1C4D029794E80600CDE904
:105A800000350A9B0446FFF739FA184B30201C609A
:105A900002F07FFAB6EE002ADDED071ADDED060A08
:105AA0009FED130AB0EE421AF7EE002A0446FFF704
:105AB000FBF8104B1C600DB0BDE8F08300CF000870
:105AC00008CF000800000000480500203405002031
:105AD000CDCCCC3DCDCCCC3E5C8FC23E10CF0008AF
